:020000040800F2
:100000000000022021020008C1050008C705000801
:10001000CD050008D3050008D90500080000000040
:100020000000000000000000000000008123000824
:10003000DF05000800000000D1250008C11E0008EF
:1000400071020008710200087102000871020008C4
:1000500071020008710200087102000871020008B4
:1000600071020008710200087102000871020008A4
:100070007102000871020008710200087102000894
:100080007102000871020008710200087102000884
:100090007102000871020008710200087102000874
:1000A00071020008ED0500087102000871020008E5
:1000B0007102000871020008710200087102000854
:1000C0007102000871020008710200087102000844
:1000D0007102000871020008710200087102000834
:1000E0007102000871020008710200087102000824
:1000F0007102000871020008710200087102000814
:100100007102000871020008710200087102000803
:1001100071020008710200087102000871020008F3
:1001200071020008710200087102000871020008E3
:1001300071020008710200087102000871020008D3
:1001400071020008710200087102000871020008C3
:1001500071020008710200087102000871020008B3
:1001600071020008710200087102000871020008A3
:100170007102000871020008710200087102000893
:100180007102000871020008710200087102000883
:1001900071020008000000007102000871020008EE
:1001A0007102000871020008710200087102000863
:1001B0007102000871020008710200087102000853
:1001C0007102000871020008710200087102000843
:0801D000710200087102000831
:1001E00010B5054C237833B9044B13B10448AFF371
:1001F00000800123237010BD0C00002000000000CF
:10020000104A000808B5034B1BB103490348AFF37C
:10021000008008BD0000000010000020104A000807
:100220000D48854600F0ECF90C480D490D4A0023B5
:1002300002E0D458C4500433C4188C42F9D30A4A9B
:100240000A4C002301E013600432A242FBD304F005
:10025000A5FB00F063F8FEE700000220000000208C
:100260000C000020604A00080C000020C819002083
:10027000FEE780B594B000AF07F1180338220021E3
:10028000184604F0BDFB3B1D00221A605A609A60BC
:10029000DA601A61002000F095FC0223BB614FF484
:1002A00080737B624023BB6202237B630223BB63B8
:1002B0000423FB6355233B6402237B640223BB645A
:1002C0000223FB6407F11803184600F02FFD0346D4
:1002D000002B14BF01230023DBB2002B01D000F060
:1002E000D3F80F237B600323BB600023FB60002354
:1002F0003B6100237B613B1D0421184601F028F877
:100300000346002B14BF01230023DBB2002B01D0D6
:1003100000F0BAF800BF5037BD4680BD80B500AFD1
:1003200000F080F9FFF7A5FF01F0E4FD00220021B5
:10033000054801F029FE00220021044801F024FEB6
:1003400001F0FCFDFEE700BF51030008B9030008FF
:1003500080B588B000AF7860164BDB6C154A43F06F
:100360000103D364134BDB6C03F00103BB60BB6878
:1003700007F10C0300221A605A609A60DA601A6171
:100380002023FB6001233B6100237B610023BB61D1
:1003900007F10C0319464FF0904000F047FA202176
:1003A0004FF0904000F0F4FB4FF47A7001F07EFEC5
:1003B000F5E700BF0010024080B590B000AF786054
:1003C0002E4BDB6C2D4A43F00203D3642B4BDB6CCA
:1003D00003F002033B613B6907F1280300221A6026
:1003E0005A609A60DA601A618023BB620123FB6263
:1003F00000233B6300237B6307F128031946204851
:1004000000F014FA1D4BDB6C1C4A43F00403D36468
:100410001A4BDB6C03F00403FB60FB6807F1140369
:1004200000221A605A609A60DA601A614FF4005331
:100430007B610023BB610023FB6107F114031946B4
:10044000104800F0F3F94FF400510E4800F070FB33
:10045000034687F83F3097F83F30002B05D1012243
:100460008021074800F07CFB04E000228021044842
:1004700000F076FB142001F019FEE4E700100240C2
:10048000000400480008004880B400AF72B600BF06
:10049000FEE7000080B582B000AF124B1B6E114A20
:1004A00043F0010313660F4B1B6E03F001037B60E7
:1004B0007B680C4B9B6D0B4A43F080539365094B53
:1004C0009B6D03F080533B603B6800220F216FF06F
:1004D000010000F083F900F019FC00BF0837BD46A9
:1004E00080BD00BF0010024080B58CB000AF7860C6
:1004F0000023BB6200237B622C4B1B6E2B4A43F410
:1005000000631366294B1B6E03F40063BB60BB687A
:1005100007F10C0207F110031146184601F0D8F854
:1005200001F0C0F8B862BB6A214AA2FB03239B0C0E
:10053000013B7B621F4B204A1A601E4B40F2E732A0
:10054000DA601C4A7B6A53601A4B00221A61194B0D
:1005500000229A60174801F033F9034687F82F30DC
:1005600097F82F30002B1BD1124801F08BF903466E
:1005700087F82F3097F82F30002B11D1192000F079
:1005800047F97B680F2B08D800227968192000F002
:1005900025F90A4A7B68136002E0012387F82F30AF
:1005A00097F82F3018463037BD4680BD0010024006
:1005B00083DE1B4328000020002C014004000020A3
:1005C00080B400AFFEE780B400AFFEE780B400AFB8
:1005D000FEE780B400AFFEE780B400AFFEE780B472
:1005E00000AF00BFBD465DF8047B704780B500AF2B
:1005F000024801F0BFF900BF80BD00BF2800002005
:1006000080B400AF064BD3F88830054A43F470033A
:10061000C2F8883000BFBD465DF8047B704700BF5C
:1006200000ED00E080B582B000AF0023FB71032035
:1006300000F0C9F80F20FFF757FF0346002B02D048
:100640000123FB7101E0FFF725FFFB79184608370E
:10065000BD4680BD80B400AF034B1B681846BD4645
:100660005DF8047B704700BF7400002080B485B043
:1006700000AF78607B6803F00703FB600C4BDB681E
:10068000BB60BA684FF6FF031340BB60FB681A02F9
:10069000BB68134343F0BF6343F40033BB60044AB9
:1006A000BB68D36000BF1437BD465DF8047B70475C
:1006B00000ED00E080B400AF044BDB681B0A03F0E0
:1006C00007031846BD465DF8047B704700ED00E067
:1006D00080B483B000AF0346FB7197F90730002B5D
:1006E0000BDBFB7903F01F02074997F907305B0921
:1006F000012000FA02F241F8232000BF0C37BD466A
:100700005DF8047B704700BF00E100E080B483B077
:1007100000AF03463960FB7197F90730002B0ADB05
:100720003B68DAB20C4997F907301201D2B20B4498
:1007300083F800230AE03B68DAB20849FB7903F04A
:100740000F03043B1201D2B20B441A7600BF0C37E0
:10075000BD465DF8047B704700E100E000ED00E07D
:1007600080B489B000AFF860B9607A60FB6803F0CC
:100770000703FB61FB69C3F10703042B28BF0423B4
:10078000BB61FB690433062B02D9FB69033B00E024
:1007900000237B614FF0FF32BB6902FA03F3DA43B7
:1007A000BB681A407B699A404FF0FF317B6901FAC0
:1007B00003F3D9437B680B40134318462437BD46E7
:1007C0005DF8047B704780B582B000AF78607868D0
:1007D000FFF74CFF00BF0837BD4680BD80B586B02F
:1007E00000AF0346B9607A60FB73FFF763FF78617F
:1007F0007A68B9687869FFF7B3FF024697F90F3056
:1008000011461846FFF782FF00BF1837BD4680BD6E
:1008100080B582B000AF0346FB7197F907301846E8
:10082000FFF756FF00BF0837BD4680BD80B487B0D4
:1008300000AF7860396000237B615AE13B681A6839
:1008400001217B6901FA03F31340FB60FB68002B75
:1008500000F04C813B685B6803F00303012B05D07B
:100860003B685B6803F00303022B30D17B689B6815
:100870003B617B695B00032202FA03F3DB433A69C5
:1008800013403B613B68DA687B695B0002FA03F363
:100890003A6913433B617B683A699A607B685B689D
:1008A0003B6101227B6902FA03F3DB433A6913409F
:1008B0003B613B685B681B0903F001027B6902FA3C
:1008C00003F33A6913433B617B683A695A603B68BA
:1008D0005B6803F00303032B17D07B68DB683B6185
:1008E0007B695B00032202FA03F3DB433A6913409E
:1008F0003B613B689A687B695B0002FA03F33A69E3
:1009000013433B617B683A69DA603B685B6803F0DC
:100910000303022B23D17B69DA087B68083253F882
:1009200022303B617B6903F007039B000F2202FA30
:1009300003F3DB433A6913403B613B681A697B6907
:1009400003F007039B0002FA03F33A6913433B6188
:100950007B69DA087B680832396943F822107B68C2
:100960001B683B617B695B00032202FA03F3DB43F4
:100970003A6913403B613B685B6803F003027B69A3
:100980005B0002FA03F33A6913433B617B683A69FF
:100990001A603B685B6803F44033002B00F0A680CC
:1009A0005B4B1B6E5A4A43F001031366584B1B6E98
:1009B00003F00103BB60BB68564A7B699B080233A6
:1009C00052F823303B617B6903F003039B000F2245
:1009D00002FA03F3DB433A6913403B617B68B3F1EE
:1009E000904F1FD07B684C4A934219D07B684B4A8A
:1009F000934213D07B684A4A93420DD07B68494AA0
:100A0000934207D07B68484A934201D105230AE00C
:100A1000062308E0042306E0032304E0022302E0A7
:100A2000012300E000237A6902F003029200934060
:100A30003A6913433B6137497B699B0802333A6942
:100A400041F82320394B9B683B61FB68DB433A69E3
:100A500013403B613B685B6803F48013002B03D0B9
:100A60003A69FB6813433B61304A3B6993602F4B03
:100A7000DB683B61FB68DB433A6913403B613B68E1
:100A80005B6803F40013002B03D03A69FB6813433F
:100A90003B61264A3B69D360244B5B683B61FB6842
:100AA000DB433A6913403B613B685B6803F4003306
:100AB000002B03D03A69FB6813433B611B4A3B6937
:100AC00053601A4B1B683B61FB68DB433A69134078
:100AD0003B613B685B6803F48033002B03D03A69C9
:100AE000FB6813433B61114A3B6913607B69013327
:100AF0007B613B681A687B6922FA03F3002B7FF461
:100B00009DAE00BF00BF1C37BD465DF8047B70473B
:100B100000100240000001400004004800080048A6
:100B2000000C004800100048001400480004014078
:100B300080B485B000AF78600B467B807B681A6913
:100B40007B881340002B02D00123FB7301E00023BC
:100B5000FB73FB7B18461437BD465DF8047B70477A
:100B600080B483B000AF78600B467B8013467B7007
:100B70007B78002B03D07A887B689A6102E07A88C0
:100B80007B689A6200BF0C37BD465DF8047B7047F6
:100B900080B485B000AF78600B467B807B685B6972
:100BA000FB607A88FB6813401A04FB68D9437B8892
:100BB0000B401A437B689A6100BF1437BD465DF84D
:100BC000047B704780B485B000AF78607B68002BF1
:100BD00041D14B4B1B6803F4C063B3F5806F31D137
:100BE000474BD3F88030464A23F48073C2F88030F4
:100BF000434B1B6823F4C063414A43F40073136002
:100C0000404B1B68322202FB03F33F4AA2FB032343
:100C10009B0C0133FB6002E0FB68013BFB60384B3F
:100C20005B6903F48063B3F5806F02D1FB68002B2E
:100C3000F2D1334B5B6903F48063B3F5806F58D115
:100C4000032357E02E4BD3F880302D4A23F48073D2
:100C5000C2F880304DE07B68B3F5007F41D1284B6E
:100C60001B6803F4C063B3F5806F31D1244BD3F814
:100C70008030234A43F48073C2F88030204B1B68D5
:100C800023F4C0631E4A43F4007313601D4B1B68BA
:100C9000322202FB03F31C4AA2FB03239B0C013309
:100CA000FB6002E0FB68013BFB60154B5B6903F4F2
:100CB0008063B3F5806F02D1FB68002BF2D1104B3B
:100CC0005B6903F48063B3F5806F12D1032311E0F5
:100CD0000B4BD3F880300A4A43F48073C2F880305B
:100CE00007E0074B1B6823F4C063054A43F48063A5
:100CF0001360002318461437BD465DF8047B704727
:100D0000007000400000002083DE1B4380B400AF71
:100D1000054B9B68044A43F48043936000BFBD4683
:100D20005DF8047B704700BF0070004080B588B05C
:100D300000AF78607B68002B01D10123FEE27B6865
:100D40001B6803F00103002B75D0974B9B6803F0E1
:100D50000C03BB61944BDB6803F003037B61BB694D
:100D60000C2B02D17B69032B02D0BB69082B0BD162
:100D70008D4B1B6803F40033002B5BD07B685B68F2
:100D8000002B57D10123D9E27B685B68B3F5803F24
:100D900006D1854B1B68844A43F4803313601DE001
:100DA0007B685B68B3F5A02F0CD17F4B1B687E4A34
:100DB00043F4802313607C4B1B687B4A43F48033ED
:100DC00013600BE0784B1B68774A23F48033136081
:100DD000754B1B68744A23F4802313607B685B683F
:100DE000002B13D0FFF736FC386108E0FFF732FC28
:100DF00002463B69D31A642B01D903239EE26A4B56
:100E00001B6803F40033002BF0D014E0FFF722FC42
:100E1000386108E0FFF71EFC02463B69D31A642BD9
:100E200001D903238AE2604B1B6803F40033002BD3
:100E3000F0D100E000BF7B681B6803F00203002BC9
:100E400075D0594B9B6803F00C03BB61564BDB68B4
:100E500003F003037B61BB690C2B02D17B69022B7E
:100E600002D0BB69042B1FD14F4B1B6803F4806376
:100E7000002B05D07B68DB68002B01D101235DE2EC
:100E8000494B5B6823F0FE427B681B691B064649A1
:100E900013434B60454B1B681846FFF725FB034681
:100EA000002B43D0012349E27B68DB68002B23D071
:100EB0003D4B1B683C4A43F480731360FFF7CAFB49
:100EC000386108E0FFF7C6FB02463B69D31A022BE4
:100ED00001D9032332E2344B1B6803F48063002BF7
:100EE000F0D0314B5B6823F0FE427B681B691B0628
:100EF0002D4913434B601AE02B4B1B682A4A23F4FD
:100F000080731360FFF7A6FB386108E0FFF7A2FBD0
:100F100002463B69D31A022B01D903230EE2224B6E
:100F20001B6803F48063002BF0D100E000BF7B68F6
:100F30001B6803F00803002B41D07B685B69002B22
:100F40001CD0194BD3F89430174A43F00103C2F870
:100F50009430FFF77FFB386108E0FFF77BFB024628
:100F60003B69D31A022B01D90323E7E10E4BD3F8D7
:100F7000943003F00203002BEFD020E00A4BD3F8AB
:100F80009430094A23F00103C2F89430FFF762FB62
:100F900038610DE0FFF75EFB02463B69D31A022B76
:100FA00006D90323CAE100BF00100240040000205C
:100FB0008C4BD3F8943003F00203002BEAD17B680A
:100FC0001B6803F00403002B00F0A6800023FB77CE
:100FD000844B9B6D03F08053002B01D1012300E073
:100FE0000023002B0DD07F4B9B6D7E4A43F0805336
:100FF00093657C4B9B6D03F08053FB60FB68012382
:10100000FB77794B1B6803F48073002B18D1764B68
:101010001B68754A43F480731360FFF71BFB38614C
:1010200008E0FFF717FB02463B69D31A022B01D9F0
:10103000032383E16C4B1B6803F48073002BF0D017
:101040007B689B68012B08D1664BD3F89030654ACA
:1010500043F00103C2F8903024E07B689B68052BC5
:1010600010D1604BD3F890305E4A43F00403C2F8CD
:1010700090305C4BD3F890305A4A43F00103C2F8E9
:1010800090300FE0574BD3F89030564A23F00103CD
:10109000C2F89030534BD3F89030524A23F00403F7
:1010A000C2F890307B689B68002B16D0FFF7D2FA0D
:1010B00038610AE0FFF7CEFA02463B69D31A41F2E3
:1010C0008832934201D9032338E1464BD3F890305C
:1010D00003F00203002BEDD015E0FFF7BBFA3861F7
:1010E0000AE0FFF7B7FA02463B69D31A41F28832A9
:1010F000934201D9032321E13A4BD3F8903003F016
:101100000203002BEDD1FB7F012B05D1354B9B6DED
:10111000344A23F0805393657B681B6803F02003F7
:10112000002B3CD07B689B69002B1CD02D4BD3F847
:1011300098302C4A43F00103C2F89830FFF78AFA3E
:10114000386108E0FFF786FA02463B69D31A022BA2
:1011500001D90323F2E0234BD3F8983003F00203C4
:10116000002BEFD01BE01F4BD3F898301D4A23F023
:101170000103C2F89830FFF76DFA386108E0FFF715
:1011800069FA02463B69D31A022B01D90323D5E041
:10119000144BD3F8983003F00203002BEFD17B6897
:1011A000DB69002B00F0C9800E4B9B6803F00C0339
:1011B0000C2B00F083807B68DB69022B5ED1094B2E
:1011C0001B68084A23F080731360FFF743FA386105
:1011D0000CE0FFF73FFA02463B69D31A022B05D910
:1011E0000323ABE00010024000700040554B1B6829
:1011F00003F00073002BECD1524BDA68524B1340D2
:101200007A68116A7A68526A013A120111437A685F
:10121000926A120211437A68126B5208013A52051F
:1012200011437A68526B5208013A520611437A68A8
:10123000D26AD2060A4343491343CB60414B1B6831
:10124000404A43F0807313603E4BDB683D4A43F0F5
:101250008073D360FFF7FEF9386108E0FFF7FAF911
:1012600002463B69D31A022B01D9032366E0354BB2
:101270001B6803F00073002BF0D05EE0314B1B685D
:10128000304A23F080731360FFF7E4F9386108E017
:10129000FFF7E0F902463B69D31A022B01D9032379
:1012A0004CE0284B1B6803F00073002BF0D1254B5A
:1012B000DA682449254B1340CB603EE07B68DB694C
:1012C000012B01D1012339E01E4BDB687B617B6977
:1012D00003F003027B681B6A9A422CD17B6903F0FE
:1012E000F0027B685B6A013B1B019A4223D17B6958
:1012F00003F4FE427B689B6A1B029A421BD17B6906
:1013000003F078427B68DB6ADB069A4213D17B6983
:1013100003F4C0027B681B6B5B08013B5B059A42D0
:1013200009D17B6903F0C0627B685B6B5B08013BA2
:101330005B069A4201D0012300E0002318462037C3
:10134000BD4680BD001002400C809F01FCFFEEFEF8
:1013500080B586B000AF7860396000237B617B6820
:10136000002B01D101231EE1914B1B6803F00F03F9
:101370003A689A4210D98E4B1B6823F00F028C49B1
:101380003B6813430B608A4B1B6803F00F033A68FA
:101390009A4201D0012306E17B681B6803F0010338
:1013A000002B73D07B685B68032B29D1814B1B68B2
:1013B00003F00073002B01D10123F4E000F0BAF92F
:1013C00038613B697C4A93423FD97A4B9B6803F072
:1013D000F003002B09D07B681B6803F00203002B8D
:1013E00033D07B689B68002B2FD1724B9B6823F016
:1013F000F003704A43F08003936080237B6124E014
:101400007B685B68022B07D16A4B1B6803F40033CF
:10141000002B09D10123C6E0664B1B6803F48063EF
:10142000002B01D10123BEE000F0CEF838613B690A
:10143000614A934209D95F4B9B6823F0F0035D4AF0
:1014400043F08003936080237B615A4B9B6823F0B9
:1014500003027B685B68574913438B60FFF7FAF818
:10146000F8600AE0FFF7F6F80246FB68D31A41F28B
:101470008832934201D9032395E04E4B9B6803F0D9
:101480000C027B685B689B009A42EBD17B681B680F
:1014900003F00203002B23D07B681B6803F00403D6
:1014A000002B05D0434B9B68424A43F4E0639360B2
:1014B0007B681B6803F00803002B07D03D4B9B683B
:1014C00023F47C533B4A43F4E0639360394B9B68BD
:1014D00023F0F0027B689B68364913438B6008E079
:1014E0007B69802B05D1334B9B68324A23F0F00394
:1014F00093602F4B1B6803F00F033A689A421DD28A
:101500002B4B1B6823F00F0229493B6813430B60E8
:10151000FFF7A0F8F8600AE0FFF79CF80246FB68C6
:10152000D31A41F28832934201D903233BE0204B86
:101530001B6803F00F033A689A42EDD17B681B6881
:1015400003F00403002B08D01A4B9B6823F4E062DD
:101550007B68DB68174913438B607B681B6803F06B
:101560000803002B09D0134B9B6823F460527B685F
:101570001B69DB000F4913438B6000F025F802461E
:101580000C4B9B681B0903F00F030C49CB5C03F069
:101590001F0322FA03F30A4A13600A4B1B6818461A
:1015A000FEF7A2FF034618461837BD4680BD00BFB0
:1015B000002002400010024000B4C404404A000869
:1015C000000000200400002080B487B000AF2C4B46
:1015D0009B6803F00C03042B02D12A4B3B6147E0CC
:1015E000274B9B6803F00C03082B02D1264B3B6171
:1015F0003EE0234B9B6803F00C030C2B36D1204BB1
:10160000DB6803F00303FB601D4BDB681B0903F081
:101610000F030133BB60FB68032B0CD11A4ABB6874
:10162000B2FBF3F3164AD268120A02F07F0202FB01
:1016300003F37B610CE0134ABB68B2FBF3F3104A7F
:10164000D268120A02F07F0202FB03F37B6100BF43
:101650000B4BDB685B0E03F0030301335B007B6025
:101660007A697B68B2FBF3F33B6101E000233B61E5
:101670003B6918461C37BD465DF8047B704700BFC8
:10168000001002400024F40000127A0080B400AF81
:10169000034B1B681846BD465DF8047B704700BFCE
:1016A0000000002080B500AFFFF7F0FF0246064BB8
:1016B0009B68DB0A03F007030449CB5C03F01F03BC
:1016C00022FA03F3184680BD00100240504A000879
:1016D00080B483B000AF786039607B680F221A60F5
:1016E000124B9B6803F003027B685A600F4B9B68A8
:1016F00003F0F0027B689A600C4B9B6803F4E06295
:101700007B68DA60094B9B68DB0803F4E0627B6866
:101710001A61074B1B6803F00F023B681A6000BF99
:101720000C37BD465DF8047B704700BF00100240D7
:101730000020024080B487B000AF1E4BDB6803F08E
:1017400003033B611B4BDB681B0903F00F030133F1
:10175000FB603B69032B0CD1174AFB68B2FBF3F328
:10176000144AD268120A02F07F0202FB03F37B6183
:101770000CE0124AFB68B2FBF3F30E4AD268120A7D
:1017800002F07F0202FB03F37B6100BF094BDB68C1
:101790005B0E03F0030301335B00BB607A69BB6837
:1017A000B2FBF3F37B607B6818461C37BD465DF8DF
:1017B000047B70470010024000127A000024F400FD
:1017C00080B582B000AF78607B68002B01D1012327
:1017D00049E07B6893F83D30DBB2002B06D17B6893
:1017E000002283F83C20786800F041F87B680222F0
:1017F00083F83D207B681A687B68043319461046DD
:1018000000F03AFA7B68012283F848207B680122C5
:1018100083F83E207B68012283F83F207B68012209
:1018200083F840207B68012283F841207B680122F5
:1018300083F842207B68012283F843207B680122E1
:1018400083F844207B68012283F845207B680122CD
:1018500083F846207B68012283F847207B680122B9
:1018600083F83D20002318460837BD4680BD80B46C
:1018700083B000AF786000BF0C37BD465DF8047BD5
:101880007047000080B485B000AF78607B6893F843
:101890003D30DBB2012B01D0012354E07B680222F2
:1018A00083F83D207B681B68DA687B681B6842F020
:1018B0000102DA607B681B68264A934222D07B686B
:1018C0001B68B3F1804F1DD07B681B68224A93428E
:1018D00018D07B681B68214A934213D07B681B6831
:1018E0001F4A93420ED07B681B681E4A934209D060
:1018F0007B681B681C4A934204D07B681B681B4AA8
:10190000934215D17B681B689A68194B1340FB60A2
:10191000FB68062B15D0FB68B3F5803F11D07B68C0
:101920001B681A687B681B6842F001021A6008E0B5
:101930007B681B681A687B681B6842F001021A60AA
:1019400000E000BF002318461437BD465DF8047B55
:10195000704700BF002C0140000400400008004018
:10196000000C0040003401400040014000500140A4
:101970000700010080B584B000AF78607B681B6809
:10198000DB68FB607B681B681B69BB60BB6803F09E
:101990000203002B20D0FB6803F00203002B1BD0B6
:1019A0007B681B686FF002021A617B6801221A775C
:1019B0007B681B689B6903F00303002B03D07868E6
:1019C00000F03BF905E0786800F02DF9786800F048
:1019D0003EF97B6800221A77BB6803F00403002BF2
:1019E00020D0FB6803F00403002B1BD07B681B682E
:1019F0006FF004021A617B6802221A777B681B6809
:101A00009B6903F44073002B03D0786800F015F94C
:101A100005E0786800F007F9786800F018F97B684D
:101A200000221A77BB6803F00803002B20D0FB6864
:101A300003F00803002B1BD07B681B686FF00802C3
:101A40001A617B6804221A777B681B68DB6903F0E4
:101A50000303002B03D0786800F0EFF805E0786806
:101A600000F0E1F8786800F0F2F87B6800221A775D
:101A7000BB6803F01003002B20D0FB6803F01003B9
:101A8000002B1BD07B681B686FF010021A617B680B
:101A900008221A777B681B68DB6903F44073002B0C
:101AA00003D0786800F0C9F805E0786800F0BBF86A
:101AB000786800F0CCF87B6800221A77BB6803F0E6
:101AC0000103002B0CD0FB6803F00103002B07D0AF
:101AD0007B681B686FF001021A61786800F099F862
:101AE000BB6803F08003002B04D1BB6803F40053F0
:101AF000002B0CD0FB6803F08003002B07D07B6821
:101B00001B686FF402521A61786800F073F9BB68C1
:101B100003F48073002B0CD0FB6803F08003002BD0
:101B200007D07B681B686FF480721A61786800F0D8
:101B30006BF9BB6803F04003002B0CD0FB6803F08B
:101B40004003002B07D07B681B686FF040021A61CE
:101B5000786800F086F8BB6803F02003002B0CD0F7
:101B6000FB6803F02003002B07D07B681B686FF035
:101B700020021A61786800F033F9BB6803F480131F
:101B8000002B0CD0FB6803F48013002B07D07B687C
:101B90001B686FF480121A61786800F03FF9BB6827
:101BA00003F40013002B0CD0FB6803F40013002B8C
:101BB00007D07B681B686FF400121A61786800F028
:101BC00037F9BB6803F48003002B0CD0FB6803F4E7
:101BD0008003002B07D07B681B686FF480021A61BA
:101BE000786800F02FF9BB6803F40003002B0CD0D9
:101BF000FB6803F40003002B07D07B681B686FF4BD
:101C000000021A61786800F027F900BF1037BD465E
:101C100080BD80B483B000AF786000BF0C37BD4694
:101C20005DF8047B704780B483B000AF786000BF7C
:101C30000C37BD465DF8047B704780B483B000AFBD
:101C4000786000BF0C37BD465DF8047B704780B4F8
:101C500083B000AF786000BF0C37BD465DF8047BF1
:101C6000704780B483B000AF786000BF0C37BD46CA
:101C70005DF8047B7047000080B485B000AF7860E9
:101C800039607B681B68FB607B684C4A934217D0C5
:101C90007B68B3F1804F13D07B68494A93420FD0E1
:101CA0007B68484A93420BD07B68474A934207D0EF
:101CB0007B68464A934203D07B68454A934208D1E9
:101CC000FB6823F07003FB603B685B68FA681343B2
:101CD000FB607B68394A934223D07B68B3F1804F25
:101CE0001FD07B68364A93421BD07B68354A9342AB
:101CF00017D07B68344A934213D07B68334A9342AF
:101D00000FD07B68334A93420BD07B68324A9342B0
:101D100007D07B68314A934203D07B682C4A9342B8
:101D200008D1FB6823F44073FB603B68DB68FA680A
:101D30001343FB60FB6823F080023B685B6913433D
:101D4000FB607B68FA681A603B689A687B68DA62B5
:101D50003B681A687B689A627B68184A934213D082
:101D60007B681A4A93420FD07B681A4A93420BD081
:101D70007B68194A934207D07B68184A934203D084
:101D80007B68134A934203D13B681A697B681A63E4
:101D90007B6801225A617B681B6903F00103012BF8
:101DA00005D17B681B6923F001027B681A6100BFC3
:101DB0001437BD465DF8047B704700BF002C01401E
:101DC0000004004000080040000C004000340140C6
:101DD00000500140004001400044014000480140E3
:101DE00080B483B000AF786000BF0C37BD465DF8AB
:101DF000047B704780B483B000AF786000BF0C37BD
:101E0000BD465DF8047B704780B483B000AF786056
:101E100000BF0C37BD465DF8047B704780B483B0CB
:101E200000AF786000BF0C37BD465DF8047B70479B
:101E300080B483B000AF786000BF0C37BD465DF85A
:101E4000047B704780B483B000AF786000BF0C376C
:101E5000BD465DF8047B704780B483B000AF786006
:101E600000BF0C37BD465DF8047B704780B483B07B
:101E700000AF03463960FB7197F90730002B0ADB8E
:101E80003B68DAB20C4997F907301201D2B20B4421
:101E900083F800230AE03B68DAB20849FB7903F0D3
:101EA0000F03043B1201D2B20B441A7600BF0C3769
:101EB000BD465DF8047B704700E100E000ED00E006
:101EC00080B500AF054B1B6802F03AF90346012BC1
:101ED00001D000F0B1FB00BF80BD00BF10E000E00A
:101EE00080B500AF00216FF00400FFF7BFFF00BF17
:101EF00080BD000080B483B000AFEFF305833B608A
:101F00003B68002B03D06FF005037B600CE00A4BAD
:101F10001B68002B05D1084B01221A6000237B604F
:101F200002E04FF0FF337B607B6818460C37BD46FC
:101F30005DF8047B704700BF7800002080B582B058
:101F400000AFEFF305833B603B68002B03D06FF0DD
:101F500005037B6010E00B4B1B68012B09D1FFF7D9
:101F6000BFFF084B02221A6001F0A2FC00237B6035
:101F700002E04FF0FF337B607B6818460837BD46B0
:101F800080BD00BF7800002080B58EB004AFF8603F
:101F9000B9607A6000233B61EFF305837B617B6965
:101FA000002B7ED1FB68002B7BD080233B62182363
:101FB000FB6100237B624FF0FF33BB617B68002B2A
:101FC00045D07B681B68002B02D07B681B687B6256
:101FD0007B689B69002B02D07B689B69FB61FB6976
:101FE000002B08D0FB69382B05D87B685B6803F0B1
:101FF0000103002B01D0002354E07B685B69002BB8
:1020000003D07B685B699B083B627B689B68002B05
:102010000ED07B68DB685B2B0AD97B681B69002BC1
:1020200006D07B685B69002B02D00123BB6110E006
:102030007B689B68002B0CD17B68DB68002B08D188
:102040007B681B69002B04D10023BB6101E00023E6
:10205000BB61BB69012B10D17B681B697A689268F0
:1020600002920193FB690093BB683A6A796AF86847
:1020700001F048FA03463B6113E0BB69002B10D125
:102080003B6A9AB207F110030193FB690093BB68A6
:10209000796AF86801F093FA0346012B01D0002316
:1020A0003B613B6918462837BD4680BD80B584B08A
:1020B00000AF7860EFF30583BB60BB68002B03D0F3
:1020C0006FF00503FB6007E00023FB607B68002BDB
:1020D00002D0786801F0B8FBFB6818461037BD469F
:1020E00080BD000080B485B000AFF860B9607A6050
:1020F000FB68074A1A60BB68064A1A607B68802240
:102100001A6000BF1437BD465DF8047B704700BFFE
:102110007C000020D800002080B485B000AFF860BB
:10212000B9607A60FB68074A1A60BB68064A1A60A1
:102130007B684FF480721A6000BF1437BD465DF8AB
:10214000047B7047D80200203403002080B483B0A1
:1021500000AF78607B6803F108027B685A607B6897
:102160004FF0FF329A607B6803F108027B68DA6007
:102170007B6803F108027B681A617B6800221A60A1
:1021800000BF0C37BD465DF8047B704780B483B058
:1021900000AF78607B6800221A6100BF0C37BD4633
:1021A0005DF8047B704780B485B000AF786039601B
:1021B0007B685B68FB603B68FA685A60FB689A68FA
:1021C0003B689A60FB689B683A685A60FB683A68AB
:1021D0009A603B687A681A617B681B685A1C7B6846
:1021E0001A6000BF1437BD465DF8047B704780B4A9
:1021F00085B000AF786039603B681B68BB60BB6826
:10220000B3F1FF3F03D17B681B69FB600CE07B6887
:102210000833FB6002E0FB685B68FB60FB685B689F
:102220001B68BA689A42F6D2FB685A683B685A60E3
:102230003B685B683A689A603B68FA689A60FB683A
:102240003A685A603B687A681A617B681B685A1C56
:102250007B681A6000BF1437BD465DF8047B704789
:1022600080B485B000AF78607B681B69FB607B68D9
:102270005B687A6892689A607B689B687A68526843
:102280005A60FB685B687A689A4203D17B689A68F7
:10229000FB685A607B6800221A61FB681B685A1E43
:1022A000FB681A60FB681B6818461437BD465DF86A
:1022B000047B704780B485B000AFF860B9607A6085
:1022C000FB68043BFB60FB684FF080721A60FB68A0
:1022D000043BFB60BB6823F00102FB681A60FB68EB
:1022E000043BFB600C4AFB681A60FB68143BFB6014
:1022F0007A68FB681A60FB68043BFB60FB686FF060
:1023000002021A60FB68203BFB60FB68184614372A
:10231000BD465DF8047B70471D23000880B485B07E
:1023200000AF00237B60124B1B68B3F1FF3F0AD064
:102330004FF0500383F31188BFF36F8FBFF34F8FBC
:10234000FB6000BFFEE74FF0500383F31188BFF33B
:102350006F8FBFF34F8FBB6000BF00BF7B68002B48
:10236000FCD000BF00BF1437BD465DF8047B70474A
:102370000800002000000000000000000000000035
:10238000074B19680868B0E8F04F80F30988BFF37D
:102390006F8F4FF0000080F311887047AFF300801B
:1023A0009C13002000BF00BF08480068006880F34D
:1023B00008884FF0000080F3148862B661B6BFF35E
:1023C0004F8FBFF36F8F00DF00BF00BF08ED00E04D
:1023D00080B586B000AF464B1B68464A93420AD18F
:1023E0004FF0500383F31188BFF36F8FBFF34F8F0C
:1023F0003B6100BFFEE73E4B1B683F4A93420AD158
:102400004FF0500383F31188BFF36F8FBFF34F8FEB
:10241000FB6000BFFEE7394B7B617B691B78DBB259
:102420007B607B69FF221A707B691B78DBB2FB70D3
:10243000FB78DBB203F05003DAB2314B1A70314B48
:1024400007221A6009E02F4B1B68013B2D4A1360DD
:10245000FB78DBB25B00DBB2FB70FB78DBB203F036
:102460008003802BEFD0274B1B68C3F10703042B9D
:102470000AD04FF0500383F31188BFF36F8FBFF37F
:102480004F8FBB6000BFFEE71E4B1B681B021D4A3F
:1024900013601C4B1B6803F4E0631A4A13607B68EB
:1024A000DAB27B691A70184B1B68174A43F4700341
:1024B0001360154B1B68144A43F07043136000F01F
:1024C000DDF8124B00221A6000F0FCF8104B1B687C
:1024D0000F4A43F040431360FFF766FF01F0C4FB6F
:1024E000FFF71CFF002318461837BD4680BD00BF0C
:1024F00000ED00E071C20F4170C20F4100E400E046
:10250000340700203807002020ED00E008000020FC
:1025100034EF00E080B483B000AF4FF0500383F39A
:102520001188BFF36F8FBFF34F8F7B6000BF0F4BDE
:102530001B6801330D4A13600C4B1B68012B0FD134
:102540000B4B1B68DBB2002B0AD04FF0500383F318
:102550001188BFF36F8FBFF34F8F3B6000BFFEE763
:1025600000BF0C37BD465DF8047B704708000020B3
:1025700004ED00E080B483B000AF124B1B68002B69
:102580000AD14FF0500383F31188BFF36F8FBFF36D
:102590004F8F7B6000BFFEE70A4B1B68013B094A77
:1025A0001360084B1B68002B05D100233B603B6880
:1025B00083F3118800BF00BF0C37BD465DF8047B74
:1025C000704700BF0800002000000000000000006D
:1025D000EFF30980BFF36F8F154B1A681EF0100FD1
:1025E00008BF20ED108A20E9F04F10602DE90900A6
:1025F0004FF0500080F31188BFF34F8FBFF36F8F00
:1026000001F032FB4FF0000080F3118809BC19681B
:102610000868B0E8F04F1EF0100F08BFB0EC108A49
:1026200080F30988BFF36F8F704700BFAFF300805E
:102630009C13002000BF00BF80B582B000AF4FF0F8
:10264000500383F31188BFF36F8FBFF34F8F7B600D
:1026500000BF01F04FFA0346002B03D0064B4FF0AA
:1026600080521A6000233B603B6883F3118800BFEF
:1026700000BF0837BD4680BD04ED00E080B400AF68
:102680000B4B00221A600B4B00221A600A4B1B688E
:102690000A4AA2FB03239B09094A013B1360044B2E
:1026A00007221A6000BFBD465DF8047B704700BF7B
:1026B00010E000E018E000E000000020D34D6210C0
:1026C00014E000E0DFF80C00016841F470010160E3
:1026D000704700BF88ED00E080B485B000AFEFF335
:1026E0000583FB60FB680F2B14D9174AFB68134462
:1026F0001B78FB72154B1B78FA7A9A420AD24FF07C
:10270000500383F31188BFF36F8FBFF34F8F7B604C
:1027100000BFFEE70E4B1B6803F4E0620D4B1B6825
:102720009A420AD94FF0500383F31188BFF36F8F99
:10273000BFF34F8F3B6000BFFEE700BF1437BD46BD
:102740005DF8047B704700BFF0E300E03407002031
:102750000CED00E03807002080B58AB000AF78604B
:102760000023FB6101F00AF95B4B1B68002B01D1D0
:1027700000F020F9594B1A687B681340002B40F099
:1027800093807B68002B1DD008227B6813447B60FC
:102790007B6803F00703002B14D07B6823F007034A
:1027A00008337B607B6803F00703002B0AD04FF0EF
:1027B000500383F31188BFF36F8FBFF34F8F7B619B
:1027C00000BFFEE77B68002B6ED0454B1B687A6824
:1027D0009A4269D8434B3B62424B1B687B6204E0E0
:1027E0007B6A3B627B6A1B687B627B6A5B687A6898
:1027F0009A4203D97B6A1B68002BF1D1364B1B68C8
:102800007A6A9A4250D03B6A1B6808221344FB61E3
:102810007B6A1A683B6A1A607B6A5A687B68D21ABC
:1028200008235B009A421FD97A6A7B681344BB6114
:10283000BB6903F00703002B0AD04FF0500383F36A
:102840001188BFF36F8FBFF34F8F3B6100BFFEE76F
:102850007B6A5A687B68D21ABB695A607B6A7A685D
:102860005A60B86900F008F91D4B1A687B6A5B680A
:10287000D31A1B4A13601A4B1A681B4B1B689A42E7
:1028800003D2174B1B68184A13607B6A5A68134BB4
:102890001B681A437B6A5A607B6A00221A60134BDA
:1028A0001B680133114A136001F076F8FB6903F0ED
:1028B0000703002B0AD04FF0500383F31188BFF3B6
:1028C0006F8FBFF34F8FFB6000BFFEE7FB691846B9
:1028D0002837BD4680BD00BF441300205813002098
:1028E000481300203C1300204C13002050130020FC
:1028F00080B586B000AF78607B687B617B68002B19
:102900004DD008235B427A6913447B617B693B614C
:102910003B695A68244B1B681340002B0AD14FF0C7
:10292000500383F31188BFF36F8FBFF34F8FFB60AA
:1029300000BFFEE73B691B68002B0AD04FF0500335
:1029400083F31188BFF36F8FBFF34F8FBB6000BF5E
:10295000FEE73B695A68144B1B681340002B1ED0DE
:102960003B691B68002B1AD13B695A680E4B1B68E8
:10297000DB431A403B695A6001F000F83B695A6832
:102980000A4B1B681344094A1360386900F074F855
:10299000074B1B680133064A136000F0FDFF00BFC0
:1029A0001837BD4680BD00BF5813002048130020D3
:1029B0005413002080B485B000AF4FF44063BB6077
:1029C000274BFB60FB6803F00703002B0CD0FB6870
:1029D0000733FB60FB6823F00703FB60BA68FB6802
:1029E000D31A1F4A1344BB60FB687B601D4A7B6897
:1029F00013601C4B00225A607B68BA681344FB606A
:102A00000822FB689B1AFB60FB6823F00703FB604E
:102A1000FB68154A1360144B1B6800225A60124B66
:102A20001B6800221A607B683B603B68FA68D21A18
:102A30003B685A600C4B1A683B681A603B685B68DD
:102A40000A4A13603B685B68094A1360094B4FF000
:102A500000421A6000BF1437BD465DF8047B704722
:102A60003C0700203C130020441300204C1300209E
:102A7000481300205813002080B485B000AF786060
:102A8000284BFB6002E0FB681B68FB60FB681B686F
:102A90007A689A42F7D8FB68BB60FB685B68BA68E3
:102AA00013447A689A4208D1FB685A687B685B686D
:102AB0001A44FB685A60FB687B607B68BB607B687C
:102AC0005B68BA681A44FB681B689A4218D1FB68B5
:102AD0001A68154B1B689A420DD07B685A68FB68D0
:102AE0001B685B681A447B685A60FB681B681A683D
:102AF0007B681A6008E00C4B1A687B681A6003E078
:102B0000FB681A687B681A60FA687B689A4202D090
:102B1000FB687A681A6000BF1437BD465DF8047B15
:102B2000704700BF3C1300204413002080B584B0E0
:102B300000AF786039607B68FB60FB68002B0AD1CE
:102B40004FF0500383F31188BFF36F8FBFF34F8FA4
:102B5000BB6000BFFEE7FFF7DDFCFB681A68FB689F
:102B6000DB6BF968096C01FB03F31A44FB689A609C
:102B7000FB6800229A63FB681A68FB685A60FB686E
:102B80001A68FB68DB6B013BF968096C01FB03F316
:102B90001A44FB68DA60FB68FF2283F84420FB6874
:102BA000FF2283F845203B68002B14D1FB681B698A
:102BB000002B1AD0FB681033184601F003F90346C6
:102BC000002B12D00C4B4FF080521A60BFF34F8F86
:102BD000BFF36F8F09E0FB6810331846FFF7B6FAB2
:102BE000FB6824331846FFF7B1FAFFF7C3FC012353
:102BF00018461037BD4680BD04ED00E080B58EB0AC
:102C000002AFF860B9607A603B60FB68002B0AD1C4
:102C10004FF0500383F31188BFF36F8FBFF34F8FD3
:102C2000BB6200BFFEE73B68002B0AD14FF05003A8
:102C300083F31188BFF36F8FBFF34F8F7B6200BFA9
:102C4000FEE77B68002B02D0BB68002B01D001237C
:102C500000E00023002B0AD14FF0500383F31188CA
:102C6000BFF36F8FBFF34F8F3B6200BFFEE77B6800
:102C7000002B02D1BB68002B01D1012300E000230F
:102C8000002B0AD14FF0500383F31188BFF36F8FED
:102C9000BFF34F8FFB6100BFFEE750237B617B6971
:102CA000502B0AD04FF0500383F31188BFF36F8F7E
:102CB000BFF34F8FBB6100BFFEE77B693B68FB62E0
:102CC000FB6A002B0DD0FB6A012283F8462097F89F
:102CD0003820FB6A009313467A68B968F86800F0F8
:102CE00005F8FB6A18463037BD4680BD80B584B014
:102CF00000AFF860B9607A60FB70BB68002B03D14D
:102D0000BB69BA691A6002E0BB697A681A60BB697C
:102D1000FA68DA63BB69BA681A640121B869FFF717
:102D200005FFBB69FA7883F84C2000BF1037BD4619
:102D300080BD000080B58EB000AFF860B9607A60E9
:102D40003B6000237B63FB683B633B6B002B0AD13A
:102D50004FF0500383F31188BFF36F8FBFF34F8F92
:102D6000BB6200BFFEE7BB68002B03D13B6B1B6C53
:102D7000002B01D1012300E00023002B0AD14FF0EA
:102D8000500383F31188BFF36F8FBFF34F8F7B62C4
:102D900000BFFEE73B68022B03D13B6BDB6B012BD3
:102DA00001D1012300E00023002B0AD14FF0500392
:102DB00083F31188BFF36F8FBFF34F8F3B6200BF68
:102DC000FEE701F0BDF90346002B02D17B68002B22
:102DD00001D1012300E00023002B0AD14FF0500362
:102DE00083F31188BFF36F8FBFF34F8FFB6100BF79
:102DF000FEE7FFF78FFB3B6B9A6B3B6BDB6B9A42FB
:102E000002D33B68022B29D13A68B968386B00F0CD
:102E10000BFAF8623B6B5B6A002B10D03B6B2433E0
:102E2000184600F0CFFF0346002B13D03F4B4FF066
:102E300080521A60BFF34F8FBFF36F8F0AE0FB6AB7
:102E4000002B07D0394B4FF080521A60BFF34F8FE1
:102E5000BFF36F8FFFF78EFB012363E07B68002BCE
:102E600003D1FFF787FB00235CE07B6B002B06D1CF
:102E700007F11403184601F009F801237B63FFF7FB
:102E800079FB00F07BFDFFF745FB3B6B93F844308B
:102E90005BB2B3F1FF3F03D13B6B002283F84420C8
:102EA0003B6B93F845305BB2B3F1FF3F03D13B6B13
:102EB000002283F84520FFF75DFB3A1D07F114035C
:102EC0001146184600F0F8FF0346002B24D1386B5A
:102ED00000F0A2FA0346002B18D03B6B10337A683F
:102EE0001146184600F01EFF386B00F02DFA00F076
:102EF00053FD0346002B7FF47CAF0C4B4FF0805208
:102F00001A60BFF34F8FBFF36F8F72E7386B00F01B
:102F10001BFA00F041FD6CE7386B00F015FA00F089
:102F20003BFD002318463837BD4680BD04ED00E068
:102F300080B590B000AFF860B9607A603B60FB6824
:102F4000BB63BB6B002B0AD14FF0500383F3118896
:102F5000BFF36F8FBFF34F8FBB6200BFFEE7BB684D
:102F6000002B03D1BB6B1B6C002B01D1012300E0B4
:102F70000023002B0AD14FF0500383F31188BFF3D5
:102F80006F8FBFF34F8F7B6200BFFEE73B68022B62
:102F900003D1BB6BDB6B012B01D1012300E00023CC
:102FA000002B0AD14FF0500383F31188BFF36F8FCA
:102FB000BFF34F8F3B6200BFFEE7FFF78DFBEFF3E0
:102FC00011824FF0500383F31188BFF36F8FBFF36B
:102FD0004F8FFA61BB61FB697B63BB6B9A6BBB6B09
:102FE000DB6B9A4202D33B68022B2FD1BB6B93F869
:102FF000453087F83330BB6B9B6BFB623A68B9682E
:10300000B86B00F011F997F93330B3F1FF3F12D1EB
:10301000BB6B5B6A002B16D0BB6B2433184600F0E9
:10302000D1FE0346002B0ED07B68002B0BD07B68B3
:1030300001221A6007E097F833300133DBB25AB24D
:10304000BB6B83F845200123FB6301E00023FB6396
:103050007B6B7B617B6983F3118800BFFB6B184638
:103060004037BD4680BD000080B58CB000AFF86031
:10307000B9607A600023FB62FB68BB62BB6A002B0D
:103080000AD14FF0500383F31188BFF36F8FBFF362
:103090004F8F3B6200BFFEE7BB68002B03D1BB6ACA
:1030A0001B6C002B01D1012300E00023002B0AD16F
:1030B0004FF0500383F31188BFF36F8FBFF34F8F2F
:1030C000FB6100BFFEE701F03BF80346002B02D195
:1030D0007B68002B01D1012300E00023002B0AD1E3
:1030E0004FF0500383F31188BFF36F8FBFF34F8FFF
:1030F000BB6100BFFEE7FFF70DFABB6A9B6B7B620B
:103100007B6A002B1FD0B968B86A00F0F7F87B6AB9
:103110005A1EBB6A9A63BB6A1B69002B0FD0BB6A3D
:103120001033184600F04EFE0346002B07D03D4BEF
:103130004FF080521A60BFF34F8FBFF36F8FFFF7CE
:1031400019FA012369E07B68002B03D1FFF712FA1B
:10315000002362E0FB6A002B06D107F1100318463A
:1031600000F094FE0123FB62FFF704FA00F006FC76
:10317000FFF7D0F9BB6A93F844305BB2B3F1FF3F7D
:1031800003D1BB6A002283F84420BB6A93F8453020
:103190005BB2B3F1FF3F03D1BB6A002283F8452045
:1031A000FFF7E8F93A1D07F110031146184600F041
:1031B00083FE0346002B23D1B86A00F017F90346BB
:1031C000002B17D0BB6A24337A681146184600F0EA
:1031D000A9FDB86A00F0B8F800F0DEFB0346002B4A
:1031E00089D1104B4FF080521A60BFF34F8FBFF35D
:1031F0006F8F80E7B86A00F0A7F800F0CDFB7AE7A0
:10320000B86A00F0A1F800F0C7FBB86A00F0EEF869
:103210000346002B3FF46FAF002318463037BD46FE
:1032200080BD00BF04ED00E080B586B000AFF8605F
:10323000B9607A6000237B61FB689B6B3B61FB6834
:103240001B6C002B0DD1FB681B68002B4DD1FB685C
:103250009B68184600F092FF7861FB6800229A6034
:1032600043E07B68002B19D1FB685868FB681B6C36
:103270001A46B96801F0B6FBFB685A68FB681B6C1C
:103280001A44FB685A60FB685A68FB689B689A425C
:103290002BD3FB681A68FB685A6026E0FB68D86885
:1032A000FB681B6C1A46B96801F09CFBFB68DA6886
:1032B000FB681B6C5B421A44FB68DA60FB68DA68E7
:1032C000FB681B689A4207D2FB689A68FB681B6C14
:1032D0005B421A44FB68DA607B68022B05D13B69CC
:1032E000002B02D03B69013B3B613B695A1CFB68E8
:1032F0009A637B6918461837BD4680BD80B582B099
:1033000000AF786039607B681B6C002B18D07B683D
:10331000DA687B681B6C1A447B68DA607B68DA6861
:103320007B689B689A4203D37B681A687B68DA6083
:103330007B68D9687B681B6C1A46386801F052FBC1
:1033400000BF0837BD4680BD80B584B000AF78604F
:10335000FFF7E0F87B6893F84530FB7311E07B687A
:103360005B6A002B12D07B682433184600F02AFDDC
:103370000346002B01D000F001FEFB7B013BDBB2DA
:10338000FB7397F90F30002BE9DC00E000BF7B688E
:10339000FF2283F84520FFF7EDF8FFF7BBF87B68C5
:1033A00093F84430BB7311E07B681B69002B12D08B
:1033B0007B681033184600F005FD0346002B01D052
:1033C00000F0DCFDBB7B013BDBB2BB7397F90E3039
:1033D000002BE9DC00E000BF7B68FF2283F844207B
:1033E000FFF7C8F800BF1037BD4680BD80B584B078
:1033F00000AF7860FFF78EF87B689B6B002B02D1E3
:103400000123FB6001E00023FB60FFF7B3F8FB68DA
:1034100018461037BD4680BD80B584B000AF7860D7
:10342000FFF778F87B689A6B7B68DB6B9A4202D176
:103430000123FB6001E00023FB60FFF79BF8FB68C2
:1034400018461037BD4680BD80B485B000AF7860A7
:1034500039600023FB6014E00F4AFB6852F83330F8
:10346000002B0BD10C49FB683A6841F833200A4A1B
:10347000FB68DB0013447A685A6006E0FB6801339E
:10348000FB60FB68072BE7D900BF00BF1437BD46C0
:103490005DF8047B704700BF5C13002080B586B0E8
:1034A00000AFF860B9607A60FB687B61FFF732F8C3
:1034B0007B6993F844305BB2B3F1FF3F03D17B6982
:1034C000002283F844207B6993F845305BB2B3F166
:1034D000FF3F03D17B69002283F84520FFF74AF8BC
:1034E0007B699B6B002B06D17B6924337A68B968B2
:1034F000184600F03BFC7869FFF726FF00BF18373D
:10350000BD4680BD80B58EB004AFF860B9607A600A
:103510003B607B6B002B0AD14FF0500383F3118883
:10352000BFF36F8FBFF34F8F3B6200BFFEE7BB6BF4
:10353000002B0AD14FF0500383F31188BFF36F8F34
:10354000BFF34F8FFB6100BFFEE75C233B613B692C
:103550005C2B0AD04FF0500383F31188BFF36F8FB9
:10356000BFF34F8FBB6100BFFEE73B69BB6B002B16
:103570001ED07B6B002B1BD0BB6B7B627B6A7A6B94
:103580001A637B6A022283F85920002303937B6A23
:10359000029307F1140301933B6B00933B687A6835
:1035A000B968F86800F050F8786A00F0DDF801E0DA
:1035B00000237B617B6918462837BD4680BD80B5F6
:1035C0008CB004AFF860B9603B601346FB80FB88A9
:1035D0009B001846FFF7C0F878617B69002B0ED07E
:1035E0005C20FFF7B9F8F861FB69002B03D0FB6999
:1035F0007A691A6305E07869FFF77AF901E0002338
:10360000FB61FB69002B17D0FB69002283F859206E
:10361000FA8800230393FB690293FB6A0193BB6A58
:1036200000933B68B968F86800F00EF8F86900F09C
:103630009BF80123BB6102E04FF0FF33BB61BB6924
:1036400018462037BD4680BD80B588B000AFF86011
:10365000B9607A603B603B6B186B7B689B001A46D5
:10366000A52101F0CDF93B6B1A6B7B6803F1804318
:10367000013B9B001344BB61BB6923F00703BB61A3
:10368000BB6903F00703002B0AD04FF0500383F30C
:103690001188BFF36F8FBFF34F8F7B6100BFFEE7D1
:1036A000BB68002B1FD00023FB6112E0BA68FB69E6
:1036B000134419783A6BFB69134434330A461A7081
:1036C000BA68FB6913441B78002B06D0FB690133F1
:1036D000FB61FB690F2BE9D900E000BF3B6B0022C7
:1036E00083F8432003E03B6B002283F83420BB6A5D
:1036F000372B01D93723BB623B6BBA6ADA623B6B6B
:10370000BA6ADA643B6B00221A653B6B04331846D5
:10371000FEF73CFD3B6B18331846FEF737FD3B6B5D
:103720003A6B1A61BB6AC3F138023B6B9A613B6B1F
:103730003A6B5A623B6B00225A653B6B002283F85E
:1037400058203A68F968B869FEF7B4FD02463B6B49
:103750001A60FB6A002B02D0FB6A3A6B1A6000BF4A
:103760002037BD4680BD000080B582B000AF7860D4
:10377000FEF7D0FE2D4B1B6801332C4A13602C4BF7
:103780001B68002B09D12A4A7B681360274B1B68F2
:10379000012B10D100F016FC0DE0264B1B68002B0E
:1037A00009D1234B1B68DA6A7B68DB6A9A4202D82C
:1037B0001F4A7B681360204B1B6801331E4A13604D
:1037C0001D4B1A687B685A647B68DA6A1B4B1B685E
:1037D0009A4203D97B68DB6A184A13607B68DA6A0D
:1037E00013469B0013449B00154A1A447B6804331C
:1037F00019461046FEF7D7FCFEF7BCFE0D4B1B68C2
:10380000002B0ED00A4B1B68DA6A7B68DB6A9A428F
:1038100007D20C4B4FF080521A60BFF34F8FBFF3AB
:103820006F8F00BF0837BD4680BD00BF70180020F5
:103830009C1300207C1800208C1800207818002091
:10384000A013002004ED00E080B584B000AF7860E4
:103850000023FB607B68002B17D0134B1B68002BE9
:103860000AD04FF0500383F31188BFF36F8FBFF37B
:103870004F8FBB6000BFFEE700F080F80021786842
:1038800000F0EAFC00F088F8F860FB68002B07D134
:10389000064B4FF080521A60BFF34F8FBFF36F8F0C
:1038A00000BF1037BD4680BD9818002004ED00E031
:1038B00080B58AB004AF0023BB6000237B603A462A
:1038C000391D07F108031846FEF70CFC39687B68C0
:1038D000BA68029201930023009300230A4621490B
:1038E0002148FFF70FFE0346204A13601F4B1B6859
:1038F000002B02D001237B6101E000237B617B6907
:10390000012B02D100F0FCFC78617B69012B16D100
:103910004FF0500383F31188BFF36F8FBFF34F8FC6
:103920003B6100BF124B4FF0FF321A60114B012276
:103930001A60114B00221A60FEF74AFD0EE07B6907
:10394000B3F1FF3F0AD14FF0500383F31188BFF367
:103950006F8FBFF34F8FFB6000BFFEE700BF1837CC
:10396000BD4680BD284A0008953F000894180020F5
:10397000901800207C1800207418002080B400AF3C
:10398000044B1B680133034A136000BFBD465DF85A
:10399000047B70479818002080B584B000AF0023E6
:1039A000FB600023BB60424B1B68002B0AD14FF029
:1039B000500383F31188BFF36F8FBFF34F8F3B60CA
:1039C00000BFFEE7FEF7A6FD394B1B68013B384AF6
:1039D0001360374B1B68002B62D1364B1B68002BE2
:1039E0005ED02FE0344BDB68DB68FB60FB6818338C
:1039F0001846FEF735FCFB6804331846FEF730FC2A
:103A0000FB68DA6A2D4B1B689A4203D9FB68DB6AB4
:103A10002A4A1360FB68DA6A13469B0013449B0032
:103A2000274A1A44FB68043319461046FEF7BBFBCD
:103A3000FB68DA6A234B1B68DB6A9A4202D3224B8B
:103A400001221A601C4B1B68002BCBD1FB68002B9A
:103A500001D000F055FB1D4B1B687B607B68002B81
:103A600010D000F047F80346002B02D0164B01227D
:103A70001A607B68013B7B607B68002BF1D1134BA4
:103A800000221A60104B1B68002B09D00123BB6079
:103A90000F4B4FF080521A60BFF34F8FBFF36F8F01
:103AA000FEF768FDBB6818461037BD4680BD00BFF5
:103AB0009818002070180020301800207818002076
:103AC000A01300209C1300208418002080180020E0
:103AD00004ED00E080B483B000AF054B1B687B6051
:103AE0007B6818460C37BD465DF8047B704700BF05
:103AF0007418002080B586B000AF00237B614F4B67
:103B00001B68002B40F08F804D4B1B6801333B61DD
:103B10004B4A3B6913603B69002B20D1494B1B6822
:103B20001B68002B0AD04FF0500383F31188BFF3BA
:103B30006F8FBFF34F8F3B6000BFFEE7414B1B68A9
:103B4000FB60414B1B683F4A13603F4AFB681360B0
:103B50003E4B1B6801333D4A136000F0D1FA3C4BE9
:103B60001B683A699A4249D3364B1B681B68002B85
:103B700004D1374B4FF0FF321A603FE0314B1B68E6
:103B8000DB68DB68BB60BB685B687B603A697B684D
:103B90009A4203D22E4A7B6813602FE0BB6804333D
:103BA0001846FEF75DFBBB689B6A002B04D0BB6820
:103BB00018331846FEF754FBBB68DA6A254B1B68BE
:103BC0009A4203D9BB68DB6A224A1360BB68DA6A8F
:103BD00013469B0013449B001F4A1A44BB680433DE
:103BE00019461046FEF7DFFABB68DA6A1B4B1B6802
:103BF000DB6A9A42B8D301237B61B5E7174B1B6898
:103C0000DA6A154913469B0013449B000B441B685A
:103C1000012B01D901237B61114B1B68002B07D0BD
:103C200001237B6104E00F4B1B6801330D4A1360D5
:103C30007B6918461837BD4680BD00BF9818002024
:103C400074180020281800202C1800208818002044
:103C50009018002078180020A01300209C1300204A
:103C6000841800208018002080B485B000AF284B55
:103C70001B68002B03D0274B01221A6041E0254B23
:103C800000221A60244B1B68FB6010E0FB68002BCD
:103C90000AD14FF0500383F31188BFF36F8FBFF346
:103CA0004F8F7B6000BFFEE7FB68013BFB601B4959
:103CB000FA6813469B0013449B000B441B68002BBF
:103CC000E4D0FA6813469B0013449B00134A134444
:103CD000BB60BB685B685A68BB685A60BB685A685F
:103CE000BB6808339A4204D1BB685B685A68BB68FA
:103CF0005A60BB685B68DB68094A1360064AFB6868
:103D0000136000BF1437BD465DF8047B704700BFE9
:103D1000981800208418002078180020A013002094
:103D20009C13002080B584B000AF786039607B6858
:103D3000002B0AD14FF0500383F31188BFF36F8F2C
:103D4000BFF34F8FFB6000BFFEE7074B1B681833C4
:103D500019467868FEF74BFA0121386800F07CFAC2
:103D600000BF1037BD4680BD9C13002080B586B0D3
:103D700000AFF860B9607A60FB68002B0AD14FF0A1
:103D8000500383F31188BFF36F8FBFF34F8F7B61B5
:103D900000BFFEE70A4B1B6818331946F868FEF7A8
:103DA00002FA7B68002B02D04FF0FF33BB607968CA
:103DB000B86800F051FA00BF1837BD4680BD00BF9B
:103DC0009C13002080B586B000AF78607B68DB680C
:103DD000DB683B613B69002B0AD14FF0500383F352
:103DE0001188BFF36F8FBFF34F8FFB6000BFFEE7FB
:103DF0003B6918331846FEF733FA1E4B1B68002B3D
:103E00001DD13B6904331846FEF72AFA3B69DA6A8A
:103E1000194B1B689A4203D93B69DB6A164A136047
:103E20003B69DA6A13469B0013449B00134A1A4409
:103E30003B69043319461046FEF7B5F905E03B69C6
:103E4000183319460E48FEF7AEF93B69DA6A0D4B96
:103E50001B68DB6A9A4205D901237B610A4B012268
:103E60001A6001E000237B617B6918461837BD4664
:103E700080BD00BF9818002078180020A0130020F3
:103E8000301800209C1300208418002080B483B0D8
:103E900000AF7860064B1A687B681A60054B1A6899
:103EA0007B685A6000BF0C37BD465DF8047B7047E5
:103EB000881800207418002080B588B000AF7860A2
:103EC00039607B68002B0AD14FF0500383F31188CF
:103ED000BFF36F8FBFF34F8F3B6100BFFEE73B68BF
:103EE000002B0AD14FF0500383F31188BFF36F8F7B
:103EF000BFF34F8FFB6000BFFEE7FEF70BFB1D4BD0
:103F00001B68BB617B685B68BA69D31A7B613B68DD
:103F10001B68B3F1FF3F02D10023FB6123E07B6804
:103F20001A68154B1B689A4207D07B685B68BA69B0
:103F30009A4202D30123FB6115E03B681B687A6952
:103F40009A420BD23B681A687B69D21A3B681A60A6
:103F50007868FFF79BFF0023FB6104E03B680022C9
:103F60001A600123FB61FEF705FBFB691846203749
:103F7000BD4680BD741800208818002080B400AFB2
:103F8000034B01221A6000BFBD465DF8047B7047F9
:103F90008418002080B582B000AF786000F052F83D
:103FA000064B1B68012BF9D9054B4FF080521A6064
:103FB000BFF34F8FBFF36F8FF0E700BFA013002058
:103FC00004ED00E080B582B000AF00237B600CE020
:103FD0007A6813469B0013449B00124A1344184608
:103FE000FEF7B4F87B6801337B607B68372BEFD931
:103FF0000D48FEF7ABF80D48FEF7A8F80C48FEF7A1
:10400000A5F80C48FEF7A2F80B48FEF79FF80B4BFB
:10401000054A1A600A4B054A1A6000BF0837BD46B8
:1040200080BD00BFA013002000180020141800203D
:1040300030180020441800205C18002028180020A8
:104040002C18002080B582B000AF19E0FEF762FAAC
:10405000104BDB68DB687B607B6804331846FEF737
:10406000FFF80D4B1B68013B0B4A13600B4B1B68A1
:10407000013B0A4A1360FEF77DFA786800F010F8F9
:10408000064B1B68002BE1D100BF00BF0837BD46BF
:1040900080BD00BF44180020701800205818002070
:1040A00080B584B000AF78607B6893F85930002BFE
:1040B00008D17B681B6B1846FEF71AFC7868FEF780
:1040C00017FC18E07B6893F85930012B03D178680E
:1040D000FEF70EFC0FE07B6893F85930022B0AD0F4
:1040E0004FF0500383F31188BFF36F8FBFF34F8FEF
:1040F000FB6000BFFEE700BF1037BD4680BD00007B
:1041000080B483B000AF0C4B1B681B68002B04D13C
:104110000A4B4FF0FF321A6008E0074B1B68DB6860
:10412000DB687B607B685B68044A136000BF0C3708
:10413000BD465DF8047B70472818002090180020C9
:1041400080B483B000AF0B4B1B68002B02D101235E
:104150007B6008E0084B1B68002B02D102237B60C8
:1041600001E000237B607B6818460C37BD465DF894
:10417000047B70477C1800209818002080B586B01A
:1041800000AF78607B683B6100237B617B68002B1C
:1041900056D02E4B1B683A699A420AD04FF0500312
:1041A00083F31188BFF36F8FBFF34F8FFB6000BFA6
:1041B000FEE73B691B6D002B0AD14FF0500383F3E0
:1041C0001188BFF36F8FBFF34F8FBB6000BFFEE757
:1041D0003B691B6D5A1E3B691A653B69DA6A3B698C
:1041E000DB6C9A422CD03B691B6D002B28D13B69BC
:1041F00004331846FEF734F83B69DA6C3B69DA623F
:104200003B69DB6AC3F138023B699A613B69DA6A50
:104210000F4B1B689A4203D93B69DB6A0C4A136057
:104220003B69DA6A13469B0013449B00094A1A440F
:104230003B69043319461046FDF7B5FF01237B6146
:104240007B6918461837BD4680BD00BF9C1300200F
:1042500078180020A013002080B584B000AF7860EB
:104260003960214B1B68FB60204B1B6804331846E8
:10427000FDF7F6FF7B68B3F1FF3F0AD13B68002BE7
:1042800007D01A4B1B68043319461948FDF78BFFFA
:1042900026E0FA687B681344BB60144B1B68BA685D
:1042A0005A60BA68FB689A4209D2124B1A680F4BDF
:1042B0001B68043319461046FDF799FF10E00E4BBA
:1042C0001A680A4B1B68043319461046FDF78FFF26
:1042D0000A4B1B68BA689A4202D2084ABB6813604C
:1042E00000BF1037BD4680BD741800209C1300200D
:1042F0005C1800202C18002028180020901800209E
:1043000080B58AB004AF00237B6100F007FB1C4B33
:104310001B68002B21D00023FB600023BB603A1DEB
:1043200007F1080107F10C031846FDF7F5FE79685F
:10433000BB68FA68029201930223009300230A46A5
:1043400010491148FFF7DEF80346104A13600F4B7F
:104350001B68002B01D001237B617B69002B0AD1F4
:104360004FF0500383F31188BFF36F8FBFF34F8F6C
:104370003B6100BFFEE77B6918461837BD4680BD2C
:10438000CC180020304A0008C5440008D01800208E
:1043900080B58AB000AFF860B9607A603B600023F6
:1043A0007B62FB68002B0AD14FF0500383F3118826
:1043B000BFF36F8FBFF34F8F3B6200BFFEE71A4B17
:1043C0001B68002B2AD0BB683B617B687B61FB6864
:1043D000BB61BB68052B18DCFFF7B2FE0346022B5E
:1043E00009D1114B186807F1100100233A6BFEF751
:1043F000A1FC786212E00C4B186807F11001002351
:104400000022FEF797FC786208E0074B186807F176
:10441000100100233A68FEF78BFD78627B6A18462C
:104420002837BD4680BD00BFCC18002080B588B0BD
:1044300002AF78603960224B1B68DB68DB687B6108
:104440007B6904331846FDF70BFF7B6993F828302E
:1044500003F00403002B22D07B699A697B68D11892
:104460007B683A68786900F0D1F80346002B1FD0CA
:104470000023009300237A6800217869FFF788FF02
:1044800038613B69002B13D14FF0500383F311883F
:10449000BFF36F8FBFF34F8FFB6000BFFEE77B69F9
:1044A00093F8283023F00103DAB27B6983F82820DF
:1044B0007B691B6A7869984700BF1837BD4680BD85
:1044C000C418002080B584B000AF786007F10803FD
:1044D000184600F057F8F860BB681946F86800F015
:1044E00003F800F0D5F8F1E780B584B000AF78604C
:1044F0003960FFF743FA07F10803184600F066F841
:10450000F860BB68002B30D13B68002B0AD17A6879
:10451000FB689A4206D8FFF73FFAF9687868FFF718
:1045200085FF24E03B68002B08D0134B1B681B68F9
:10453000002B01D1012300E000233B600F4B1868E2
:104540007A68FB68D31A3A681946FEF7A7FFFFF7A7
:1045500023FA0346002B0AD1094B4FF080521A6010
:10456000BFF34F8FBFF36F8F01E0FFF715FA00BF66
:104570001037BD4680BD00BFC8180020CC180020F1
:1045800004ED00E080B485B000AF78600E4B1B688E
:104590001B68002B01D1012200E000227B681A6019
:1045A0007B681B68002B05D1074B1B68DB681B6809
:1045B000FB6001E00023FB60FB6818461437BD4632
:1045C0005DF8047B704700BFC418002080B584B03C
:1045D00000AF7860FFF77EFAF8600B4B1B68FA6853
:1045E0009A4205D200F036F97B6801221A6002E097
:1045F0007B6800221A60044AFB681360FB68184657
:104600001037BD4680BD00BFD418002080B586B0ED
:1046100000AFF860B9607A603B6000237B61FB68A3
:10462000BA685A60FB68FA681A61BA687B689A428D
:1046300012D87A683B68D21AFB689B699A4202D307
:1046400001237B611BE0104B1A68FB680433194699
:104650001046FDF7CCFD12E07A683B689A4206D21C
:10466000BA683B689A4202D301237B6107E0074B9B
:104670001A68FB68043319461046FDF7B8FD7B69DC
:1046800018461837BD4680BDC8180020C418002041
:1046900080B58EB002AFCAE07B68002B18DA3B1DF4
:1046A0000433FB62FB6A002B0AD14FF0500383F303
:1046B0001188BFF36F8FBFF34F8FFB6100BFFEE721
:1046C000FB6A1B68FA6A5068FA6A92681146984752
:1046D0007B68002BC0F2AA80FB68BB62BB6A5B6987
:1046E000002B04D0BB6A04331846FDF7B9FD3B46E6
:1046F0001846FFF76BFF78627B68092B00F2978002
:1047000001A252F823F000BF3147000831470008EA
:1047100031470008A5470008B947000803480008CA
:104720003147000831470008A5470008B94700088D
:10473000BB6A93F8283043F00103DAB2BB6A83F80E
:104740002820BA68BB6A9B69D118BB687A6AB86AC4
:10475000FFF75CFF0346002B69D0BB6A1B6AB86A8F
:104760009847BB6A93F8283003F00403002B5ED00F
:10477000BA68BB6A9B691A44002300930023002196
:10478000B86AFFF705FE38623B6A002B4FD14FF045
:10479000500383F31188BFF36F8FBFF34F8FBB615B
:1047A00000BFFEE7BB6A93F8283023F00103DAB2BA
:1047B000BB6A83F828203AE0BB6A93F8283043F0BC
:1047C0000103DAB2BB6A83F82820BA68BB6A9A612F
:1047D000BB6A9B69002B0AD14FF0500383F3118809
:1047E000BFF36F8FBFF34F8F7B6100BFFEE7BB6AE4
:1047F0009A697B6AD1187B6A7A6AB86AFFF706FF02
:1048000015E0BB6A93F8283003F00203002B03D1B4
:10481000B86AFEF76DF80AE0BB6A93F8283023F017
:104820000103DAB2BB6A83F8282000E000BF084B1E
:104830001B68391D00221846FEF716FC0346002BA4
:104840007FF42AAF00BF00BF3037BD4680BD00BF38
:10485000CC18002080B588B002AF48E02D4B1B6813
:10486000DB681B683B612B4B1B68DB68DB68FB600C
:10487000FB6804331846FDF7F3FCFB681B6AF86815
:104880009847FB6893F8283003F00403002B2ED0E0
:10489000FB689B693A691344BB60BA683B699A42FA
:1048A0000ED9FB68BA685A60FB68FA681A61194B3E
:1048B0001A68FB68043319461046FDF798FC16E0A9
:1048C0000023009300233A690021F868FFF760FD98
:1048D00078607B68002B0AD14FF0500383F3118876
:1048E000BFF36F8FBFF34F8F3B6000BFFEE7094BF5
:1048F0001B681B68002BB1D1064B1B687B61064B04
:104900001B68044A1360044A7B69136000BF1837B0
:10491000BD4680BDC4180020C818002080B582B0F4
:1049200002AFFDF7F7FD154B1B68002B20D1144893
:10493000FDF70CFC1348FDF709FC134B104A1A60F5
:10494000124B104A1A6000230093114B114A102198
:104950000A20FEF753F90346084A1360074B1B6809
:10496000002B05D0054B1B680B491846FEF76CFD64
:10497000FDF700FE00BFBD4680BD00BFCC18002083
:104980009C180020B0180020C4180020C81800206F
:1049900078190020D8180020384A000870B50D4D4D
:1049A0000D4C641BA4100026A64209D10B4D0C4CE3
:1049B00000F02EF8641BA4100026A64205D170BD9D
:1049C00055F8043B98470136EEE755F8043B984705
:1049D0000136F2E7584A0008584A0008584A0008C9
:1049E0005C4A00080A44914200F1FF3300D170474D
:1049F00010B511F8014B03F8014F9142F9D110BDE8
:104A000002440346934200D1704703F8011BF9E7C3
:104A1000F8B500BFF8BC08BC9E467047F8B500BFAB
:084A2000F8BC08BC9E4670477B
:104A280049444C4500000000546D722053766300E1
:104A3800546D7251000000000000000000000000EA
:104A4800010203040607080900000000010203042C
:044A5800050200084B
:044A5C00E10100086C
:0C4A60000024F40010000000AAAAAAAA7A
:0400000508000221CC
:00000001FF
