:020000040800F2
:100000000000022021020008690400086F040008B3
:10001000750400087B04000881040008000000004B
:10002000000000000000000000000000311D00087A
:100030008704000800000000811F0008D119000893
:1000400071020008710200087102000871020008C4
:1000500071020008710200087102000871020008B4
:1000600071020008710200087102000871020008A4
:100070007102000871020008710200087102000894
:100080007102000871020008710200087102000884
:100090007102000871020008710200087102000874
:1000A000710200089504000871020008710200083E
:1000B0007102000871020008710200087102000854
:1000C0007102000871020008710200087102000844
:1000D0007102000871020008710200087102000834
:1000E0007102000871020008710200087102000824
:1000F0007102000871020008710200087102000814
:100100007102000871020008710200087102000803
:1001100071020008710200087102000871020008F3
:1001200071020008710200087102000871020008E3
:1001300071020008710200087102000871020008D3
:1001400071020008710200087102000871020008C3
:1001500071020008710200087102000871020008B3
:1001600071020008710200087102000871020008A3
:100170007102000871020008710200087102000893
:100180007102000871020008710200087102000883
:1001900071020008000000007102000871020008EE
:1001A0007102000871020008710200087102000863
:1001B0007102000871020008710200087102000853
:1001C0007102000871020008710200087102000843
:0801D000710200087102000831
:1001E00010B5054C237833B9044B13B10448AFF371
:1001F00000800123237010BD0C00002000000000CF
:100200007040000808B5034B1BB103490348AFF326
:10021000008008BD000000001000002070400008B1
:100220000D48854600F040F90C480D490D4A002361
:1002300002E0D458C4500433C4188C42F9D30A4A9B
:100240000A4C002301E013600432A242FBD303F006
:10025000D5FE00F063F8FEE7000002200000002059
:100260000C000020C04000080C000020C00D002041
:10027000FEE780B594B000AF07F1180338220021E3
:10028000184603F0EDFE3B1D00221A605A609A608A
:10029000DA601A61002000F01DFA0223BB614FF4FE
:1002A00080737B624023BB6202237B630223BB63B8
:1002B0000423FB6355233B6402237B640223BB645A
:1002C0000223FB6407F11803184600F0B7FA03464F
:1002D000002B14BF01230023DBB2002B01D000F060
:1002E00028F80F237B600323BB600023FB600023FF
:1002F0003B6100237B613B1D0421184600F0B0FDEB
:100300000346002B14BF01230023DBB2002B01D0D6
:1003100000F00FF800BF5037BD4680BD80B500AF7C
:1003200000F0D4F8FFF7A5FF01F06CFB01F08EFBA5
:10033000FEE780B400AF72B600BFFEE780B582B0C2
:1003400000AF124B1B6E114A43F0010313660F4BB3
:100350001B6E03F001037B607B680C4B9B6D0B4AAB
:1003600043F080539365094B9B6D03F080533B60D2
:100370003B6800220F216FF0010000F083F900F0CC
:100380004DFA00BF0837BD4680BD00BF00100240D7
:1003900080B58CB000AF78600023BB6200237B6225
:1003A0002C4B1B6E2B4A43F400631366294B1B6EC8
:1003B00003F40063BB60BB6807F10C0207F1100394
:1003C0001146184600F00CFF00F0F4FEB862BB6A5C
:1003D000214AA2FB03239B0C013B7B621F4B204A5B
:1003E0001A601E4B40F2E732DA601C4A7B6A5360A7
:1003F0001A4B00221A61194B00229A60174800F02C
:1004000067FF034687F82F3097F82F30002B1BD15A
:10041000124800F0BFFF034687F82F3097F82F30BF
:10042000002B11D1192000F047F97B680F2B08D859
:1004300000227968192000F025F90A4A7B681360C8
:1004400002E0012387F82F3097F82F301846303715
:10045000BD4680BD0010024083DE1B432800002003
:10046000002C01400400002080B400AFFEE780B4FF
:1004700000AFFEE780B400AFFEE780B400AFFEE758
:1004800080B400AFFEE780B400AF00BFBD465DF8AA
:10049000047B704780B500AF024800F0F3FF00BF57
:1004A00080BD00BF2800002080B400AF064BD3F809
:1004B0008830054A43F47003C2F8883000BFBD4657
:1004C0005DF8047B704700BF00ED00E080B582B0AE
:1004D00000AF0023FB71032000F0C9F80F20FFF7E5
:1004E00057FF0346002B02D00123FB7101E0FFF709
:1004F00025FFFB7918460837BD4680BD80B400AFA4
:10050000034B1B681846BD465DF8047B704700BF6F
:100510007400002080B485B000AF78607B6803F081
:100520000703FB600C4BDB68BB60BA684FF6FF0348
:100530001340BB60FB681A02BB68134343F0BF6300
:1005400043F40033BB60044ABB68D36000BF143778
:10055000BD465DF8047B704700ED00E080B400AF5D
:10056000044BDB681B0A03F007031846BD465DF821
:10057000047B704700ED00E080B483B000AF034619
:10058000FB7197F90730002B0BDBFB7903F01F029F
:10059000074997F907305B09012000FA02F241F898
:1005A000232000BF0C37BD465DF8047B704700BFB9
:1005B00000E100E080B483B000AF03463960FB7116
:1005C00097F90730002B0ADB3B68DAB20C4997F940
:1005D00007301201D2B20B4483F800230AE03B68D3
:1005E000DAB20849FB7903F00F03043B1201D2B2DF
:1005F0000B441A7600BF0C37BD465DF8047B70478C
:1006000000E100E000ED00E080B489B000AFF860E8
:10061000B9607A60FB6803F00703FB61FB69C3F113
:100620000703042B28BF0423BB61FB690433062B9B
:1006300002D9FB69033B00E000237B614FF0FF32EE
:10064000BB6902FA03F3DA43BB681A407B699A403C
:100650004FF0FF317B6901FA03F3D9437B680B400C
:10066000134318462437BD465DF8047B704780B5B8
:1006700082B000AF78607868FFF74CFF00BF0837A2
:10068000BD4680BD80B586B000AF0346B9607A60D4
:10069000FB73FFF763FF78617A68B9687869FFF7E1
:1006A000B3FF024697F90F3011461846FFF782FF55
:1006B00000BF1837BD4680BD80B582B000AF03468D
:1006C000FB7197F907301846FFF756FF00BF083750
:1006D000BD4680BD80B485B000AF78607B68002BDC
:1006E00041D14B4B1B6803F4C063B3F5806F31D12C
:1006F000474BD3F88030464A23F48073C2F88030E9
:10070000434B1B6823F4C063414A43F400731360F6
:10071000404B1B68322202FB03F33F4AA2FB032338
:100720009B0C0133FB6002E0FB68013BFB60384B34
:100730005B6903F48063B3F5806F02D1FB68002B23
:10074000F2D1334B5B6903F48063B3F5806F58D10A
:10075000032357E02E4BD3F880302D4A23F48073C7
:10076000C2F880304DE07B68B3F5007F41D1284B63
:100770001B6803F4C063B3F5806F31D1244BD3F809
:100780008030234A43F48073C2F88030204B1B68CA
:1007900023F4C0631E4A43F4007313601D4B1B68AF
:1007A000322202FB03F31C4AA2FB03239B0C0133FE
:1007B000FB6002E0FB68013BFB60154B5B6903F4E7
:1007C0008063B3F5806F02D1FB68002BF2D1104B30
:1007D0005B6903F48063B3F5806F12D1032311E0EA
:1007E0000B4BD3F880300A4A43F48073C2F8803050
:1007F00007E0074B1B6823F4C063054A43F480639A
:100800001360002318461437BD465DF8047B70471B
:10081000007000400000002083DE1B4380B400AF66
:10082000054B9B68044A43F48043936000BFBD4678
:100830005DF8047B704700BF0070004080B588B051
:1008400000AF78607B68002B01D10123FEE27B685A
:100850001B6803F00103002B75D0974B9B6803F0D6
:100860000C03BB61944BDB6803F003037B61BB6942
:100870000C2B02D17B69032B02D0BB69082B0BD157
:100880008D4B1B6803F40033002B5BD07B685B68E7
:10089000002B57D10123D9E27B685B68B3F5803F19
:1008A00006D1854B1B68844A43F4803313601DE0F6
:1008B0007B685B68B3F5A02F0CD17F4B1B687E4A29
:1008C00043F4802313607C4B1B687B4A43F48033E2
:1008D00013600BE0784B1B68774A23F48033136076
:1008E000754B1B68744A23F4802313607B685B6834
:1008F000002B13D0FFF702FE386108E0FFF7FEFD82
:1009000002463B69D31A642B01D903239EE26A4B4A
:100910001B6803F40033002BF0D014E0FFF7EEFD6A
:10092000386108E0FFF7EAFD02463B69D31A642B01
:1009300001D903238AE2604B1B6803F40033002BC8
:10094000F0D100E000BF7B681B6803F00203002BBE
:1009500075D0594B9B6803F00C03BB61564BDB68A9
:1009600003F003037B61BB690C2B02D17B69022B73
:1009700002D0BB69042B1FD14F4B1B6803F480636B
:10098000002B05D07B68DB68002B01D101235DE2E1
:10099000494B5B6823F0FE427B681B691B06464996
:1009A00013434B60454B1B681846FFF7F1FC0346A9
:1009B000002B43D0012349E27B68DB68002B23D066
:1009C0003D4B1B683C4A43F480731360FFF796FD70
:1009D000386108E0FFF792FD02463B69D31A022B0B
:1009E00001D9032332E2344B1B6803F48063002BEC
:1009F000F0D0314B5B6823F0FE427B681B691B061D
:100A00002D4913434B601AE02B4B1B682A4A23F4F1
:100A100080731360FFF772FD386108E0FFF76EFD29
:100A200002463B69D31A022B01D903230EE2224B63
:100A30001B6803F48063002BF0D100E000BF7B68EB
:100A40001B6803F00803002B41D07B685B69002B17
:100A50001CD0194BD3F89430174A43F00103C2F865
:100A60009430FFF74BFD386108E0FFF747FD024681
:100A70003B69D31A022B01D90323E7E10E4BD3F8CC
:100A8000943003F00203002BEFD020E00A4BD3F8A0
:100A90009430094A23F00103C2F89430FFF72EFD89
:100AA00038610DE0FFF72AFD02463B69D31A022B9D
:100AB00006D90323CAE100BF001002400400002051
:100AC0008C4BD3F8943003F00203002BEAD17B68FF
:100AD0001B6803F00403002B00F0A6800023FB77C3
:100AE000844B9B6D03F08053002B01D1012300E068
:100AF0000023002B0DD07F4B9B6D7E4A43F080532B
:100B000093657C4B9B6D03F08053FB60FB68012376
:100B1000FB77794B1B6803F48073002B18D1764B5D
:100B20001B68754A43F480731360FFF7E7FC386174
:100B300008E0FFF7E3FC02463B69D31A022B01D918
:100B4000032383E16C4B1B6803F48073002BF0D00C
:100B50007B689B68012B08D1664BD3F89030654ABF
:100B600043F00103C2F8903024E07B689B68052BBA
:100B700010D1604BD3F890305E4A43F00403C2F8C2
:100B800090305C4BD3F890305A4A43F00103C2F8DE
:100B900090300FE0574BD3F89030564A23F00103C2
:100BA000C2F89030534BD3F89030524A23F00403EC
:100BB000C2F890307B689B68002B16D0FFF79EFC34
:100BC00038610AE0FFF79AFC02463B69D31A41F20A
:100BD0008832934201D9032338E1464BD3F8903051
:100BE00003F00203002BEDD015E0FFF787FC38611E
:100BF0000AE0FFF783FC02463B69D31A41F28832D0
:100C0000934201D9032321E13A4BD3F8903003F00A
:100C10000203002BEDD1FB7F012B05D1354B9B6DE2
:100C2000344A23F0805393657B681B6803F02003EC
:100C3000002B3CD07B689B69002B1CD02D4BD3F83C
:100C400098302C4A43F00103C2F89830FFF756FC65
:100C5000386108E0FFF752FC02463B69D31A022BC9
:100C600001D90323F2E0234BD3F8983003F00203B9
:100C7000002BEFD01BE01F4BD3F898301D4A23F018
:100C80000103C2F89830FFF739FC386108E0FFF73C
:100C900035FC02463B69D31A022B01D90323D5E068
:100CA000144BD3F8983003F00203002BEFD17B688C
:100CB000DB69002B00F0C9800E4B9B6803F00C032E
:100CC0000C2B00F083807B68DB69022B5ED1094B23
:100CD0001B68084A23F080731360FFF70FFC38612C
:100CE0000CE0FFF70BFC02463B69D31A022B05D937
:100CF0000323ABE00010024000700040554B1B681E
:100D000003F00073002BECD1524BDA68524B1340C6
:100D10007A68116A7A68526A013A120111437A6854
:100D2000926A120211437A68126B5208013A520514
:100D300011437A68526B5208013A520611437A689D
:100D4000D26AD2060A4343491343CB60414B1B6826
:100D5000404A43F0807313603E4BDB683D4A43F0EA
:100D60008073D360FFF7CAFB386108E0FFF7C6FB6A
:100D700002463B69D31A022B01D9032366E0354BA7
:100D80001B6803F00073002BF0D05EE0314B1B6852
:100D9000304A23F080731360FFF7B0FB386108E03E
:100DA000FFF7ACFB02463B69D31A022B01D90323A0
:100DB0004CE0284B1B6803F00073002BF0D1254B4F
:100DC000DA682449254B1340CB603EE07B68DB6941
:100DD000012B01D1012339E01E4BDB687B617B696C
:100DE00003F003027B681B6A9A422CD17B6903F0F3
:100DF000F0027B685B6A013B1B019A4223D17B694D
:100E000003F4FE427B689B6A1B029A421BD17B69FA
:100E100003F078427B68DB6ADB069A4213D17B6978
:100E200003F4C0027B681B6B5B08013B5B059A42C5
:100E300009D17B6903F0C0627B685B6B5B08013B97
:100E40005B069A4201D0012300E0002318462037B8
:100E5000BD4680BD001002400C809F01FCFFEEFEED
:100E600080B586B000AF7860396000237B617B6815
:100E7000002B01D101231EE1914B1B6803F00F03EE
:100E80003A689A4210D98E4B1B6823F00F028C49A6
:100E90003B6813430B608A4B1B6803F00F033A68EF
:100EA0009A4201D0012306E17B681B6803F001032D
:100EB000002B73D07B685B68032B29D1814B1B68A7
:100EC00003F00073002B01D10123F4E000F0BAF924
:100ED00038613B697C4A93423FD97A4B9B6803F067
:100EE000F003002B09D07B681B6803F00203002B82
:100EF00033D07B689B68002B2FD1724B9B6823F00B
:100F0000F003704A43F08003936080237B6124E008
:100F10007B685B68022B07D16A4B1B6803F40033C4
:100F2000002B09D10123C6E0664B1B6803F48063E4
:100F3000002B01D10123BEE000F0CEF838613B69FF
:100F4000614A934209D95F4B9B6823F0F0035D4AE5
:100F500043F08003936080237B615A4B9B6823F0AE
:100F600003027B685B68574913438B60FFF7C6FA3F
:100F7000F8600AE0FFF7C2FA0246FB68D31A41F2B2
:100F80008832934201D9032395E04E4B9B6803F0CE
:100F90000C027B685B689B009A42EBD17B681B6804
:100FA00003F00203002B23D07B681B6803F00403CB
:100FB000002B05D0434B9B68424A43F4E0639360A7
:100FC0007B681B6803F00803002B07D03D4B9B6830
:100FD00023F47C533B4A43F4E0639360394B9B68B2
:100FE00023F0F0027B689B68364913438B6008E06E
:100FF0007B69802B05D1334B9B68324A23F0F00389
:1010000093602F4B1B6803F00F033A689A421DD27E
:101010002B4B1B6823F00F0229493B6813430B60DD
:10102000FFF76CFAF8600AE0FFF768FA0246FB681F
:10103000D31A41F28832934201D903233BE0204B7B
:101040001B6803F00F033A689A42EDD17B681B6876
:1010500003F00403002B08D01A4B9B6823F4E062D2
:101060007B68DB68174913438B607B681B6803F060
:101070000803002B09D0134B9B6823F460527B6854
:101080001B69DB000F4913438B6000F025F8024613
:101090000C4B9B681B0903F00F030C49CB5C03F05E
:1010A0001F0322FA03F30A4A13600A4B1B6818460F
:1010B000FFF76EF9034618461837BD4680BD00BFDE
:1010C000002002400010024000B4C404A040000808
:1010D000000000200400002080B487B000AF2C4B3B
:1010E0009B6803F00C03042B02D12A4B3B6147E0C1
:1010F000274B9B6803F00C03082B02D1264B3B6166
:101100003EE0234B9B6803F00C030C2B36D1204BA5
:10111000DB6803F00303FB601D4BDB681B0903F076
:101120000F030133BB60FB68032B0CD11A4ABB6869
:10113000B2FBF3F3164AD268120A02F07F0202FBF6
:1011400003F37B610CE0134ABB68B2FBF3F3104A74
:10115000D268120A02F07F0202FB03F37B6100BF38
:101160000B4BDB685B0E03F0030301335B007B601A
:101170007A697B68B2FBF3F33B6101E000233B61DA
:101180003B6918461C37BD465DF8047B704700BFBD
:10119000001002400024F40000127A0080B400AF76
:1011A000034B1B681846BD465DF8047B704700BFC3
:1011B0000000002080B500AFFFF7F0FF0246064BAD
:1011C0009B68DB0A03F007030449CB5C03F01F03B1
:1011D00022FA03F3184680BD00100240B040000818
:1011E00080B483B000AF786039607B680F221A60EA
:1011F000124B9B6803F003027B685A600F4B9B689D
:1012000003F0F0027B689A600C4B9B6803F4E06289
:101210007B68DA60094B9B68DB0803F4E0627B685B
:101220001A61074B1B6803F00F023B681A6000BF8E
:101230000C37BD465DF8047B704700BF00100240CC
:101240000020024080B487B000AF1E4BDB6803F083
:1012500003033B611B4BDB681B0903F00F030133E6
:10126000FB603B69032B0CD1174AFB68B2FBF3F31D
:10127000144AD268120A02F07F0202FB03F37B6178
:101280000CE0124AFB68B2FBF3F30E4AD268120A72
:1012900002F07F0202FB03F37B6100BF094BDB68B6
:1012A0005B0E03F0030301335B00BB607A69BB682C
:1012B000B2FBF3F37B607B6818461C37BD465DF8D4
:1012C000047B70470010024000127A000024F400F2
:1012D00080B582B000AF78607B68002B01D101231C
:1012E00049E07B6893F83D30DBB2002B06D17B6888
:1012F000002283F83C20786800F041F87B680222E5
:1013000083F83D207B681A687B68043319461046D1
:1013100000F03AFA7B68012283F848207B680122BA
:1013200083F83E207B68012283F83F207B680122FE
:1013300083F840207B68012283F841207B680122EA
:1013400083F842207B68012283F843207B680122D6
:1013500083F844207B68012283F845207B680122C2
:1013600083F846207B68012283F847207B680122AE
:1013700083F83D20002318460837BD4680BD80B461
:1013800083B000AF786000BF0C37BD465DF8047BCA
:101390007047000080B485B000AF78607B6893F838
:1013A0003D30DBB2012B01D0012354E07B680222E7
:1013B00083F83D207B681B68DA687B681B6842F015
:1013C0000102DA607B681B68264A934222D07B6860
:1013D0001B68B3F1804F1DD07B681B68224A934283
:1013E00018D07B681B68214A934213D07B681B6826
:1013F0001F4A93420ED07B681B681E4A934209D055
:101400007B681B681C4A934204D07B681B681B4A9C
:10141000934215D17B681B689A68194B1340FB6097
:10142000FB68062B15D0FB68B3F5803F11D07B68B5
:101430001B681A687B681B6842F001021A6008E0AA
:101440007B681B681A687B681B6842F001021A609F
:1014500000E000BF002318461437BD465DF8047B4A
:10146000704700BF002C014000040040000800400D
:10147000000C004000340140004001400050014099
:101480000700010080B584B000AF78607B681B68FE
:10149000DB68FB607B681B681B69BB60BB6803F093
:1014A0000203002B20D0FB6803F00203002B1BD0AB
:1014B0007B681B686FF002021A617B6801221A7751
:1014C0007B681B689B6903F00303002B03D07868DB
:1014D00000F03BF905E0786800F02DF9786800F03D
:1014E0003EF97B6800221A77BB6803F00403002BE7
:1014F00020D0FB6803F00403002B1BD07B681B6823
:101500006FF004021A617B6802221A777B681B68FD
:101510009B6903F44073002B03D0786800F015F941
:1015200005E0786800F007F9786800F018F97B6842
:1015300000221A77BB6803F00803002B20D0FB6859
:1015400003F00803002B1BD07B681B686FF00802B8
:101550001A617B6804221A777B681B68DB6903F0D9
:101560000303002B03D0786800F0EFF805E07868FB
:1015700000F0E1F8786800F0F2F87B6800221A7752
:10158000BB6803F01003002B20D0FB6803F01003AE
:10159000002B1BD07B681B686FF010021A617B6800
:1015A00008221A777B681B68DB6903F44073002B01
:1015B00003D0786800F0C9F805E0786800F0BBF85F
:1015C000786800F0CCF87B6800221A77BB6803F0DB
:1015D0000103002B0CD0FB6803F00103002B07D0A4
:1015E0007B681B686FF001021A61786800F099F857
:1015F000BB6803F08003002B04D1BB6803F40053E5
:10160000002B0CD0FB6803F08003002B07D07B6815
:101610001B686FF402521A61786800F073F9BB68B6
:1016200003F48073002B0CD0FB6803F08003002BC5
:1016300007D07B681B686FF480721A61786800F0CD
:101640006BF9BB6803F04003002B0CD0FB6803F080
:101650004003002B07D07B681B686FF040021A61C3
:10166000786800F086F8BB6803F02003002B0CD0EC
:10167000FB6803F02003002B07D07B681B686FF02A
:1016800020021A61786800F033F9BB6803F4801314
:10169000002B0CD0FB6803F48013002B07D07B6871
:1016A0001B686FF480121A61786800F03FF9BB681C
:1016B00003F40013002B0CD0FB6803F40013002B81
:1016C00007D07B681B686FF400121A61786800F01D
:1016D00037F9BB6803F48003002B0CD0FB6803F4DC
:1016E0008003002B07D07B681B686FF480021A61AF
:1016F000786800F02FF9BB6803F40003002B0CD0CE
:10170000FB6803F40003002B07D07B681B686FF4B1
:1017100000021A61786800F027F900BF1037BD4653
:1017200080BD80B483B000AF786000BF0C37BD4689
:101730005DF8047B704780B483B000AF786000BF71
:101740000C37BD465DF8047B704780B483B000AFB2
:10175000786000BF0C37BD465DF8047B704780B4ED
:1017600083B000AF786000BF0C37BD465DF8047BE6
:10177000704780B483B000AF786000BF0C37BD46BF
:101780005DF8047B7047000080B485B000AF7860DE
:1017900039607B681B68FB607B684C4A934217D0BA
:1017A0007B68B3F1804F13D07B68494A93420FD0D6
:1017B0007B68484A93420BD07B68474A934207D0E4
:1017C0007B68464A934203D07B68454A934208D1DE
:1017D000FB6823F07003FB603B685B68FA681343A7
:1017E000FB607B68394A934223D07B68B3F1804F1A
:1017F0001FD07B68364A93421BD07B68354A9342A0
:1018000017D07B68344A934213D07B68334A9342A3
:101810000FD07B68334A93420BD07B68324A9342A5
:1018200007D07B68314A934203D07B682C4A9342AD
:1018300008D1FB6823F44073FB603B68DB68FA68FF
:101840001343FB60FB6823F080023B685B69134332
:10185000FB607B68FA681A603B689A687B68DA62AA
:101860003B681A687B689A627B68184A934213D077
:101870007B681A4A93420FD07B681A4A93420BD076
:101880007B68194A934207D07B68184A934203D079
:101890007B68134A934203D13B681A697B681A63D9
:1018A0007B6801225A617B681B6903F00103012BED
:1018B00005D17B681B6923F001027B681A6100BFB8
:1018C0001437BD465DF8047B704700BF002C014013
:1018D0000004004000080040000C004000340140BB
:1018E00000500140004001400044014000480140D8
:1018F00080B483B000AF786000BF0C37BD465DF8A0
:10190000047B704780B483B000AF786000BF0C37B1
:10191000BD465DF8047B704780B483B000AF78604B
:1019200000BF0C37BD465DF8047B704780B483B0C0
:1019300000AF786000BF0C37BD465DF8047B704790
:1019400080B483B000AF786000BF0C37BD465DF84F
:10195000047B704780B483B000AF786000BF0C3761
:10196000BD465DF8047B704780B483B000AF7860FB
:1019700000BF0C37BD465DF8047B704780B483B070
:1019800000AF03463960FB7197F90730002B0ADB83
:101990003B68DAB20C4997F907301201D2B20B4416
:1019A00083F800230AE03B68DAB20849FB7903F0C8
:1019B0000F03043B1201D2B20B441A7600BF0C375E
:1019C000BD465DF8047B704700E100E000ED00E0FB
:1019D00080B500AF054B1B6801F0E2FE0346012B0A
:1019E00001D000F001FB00BF80BD00BF10E000E0AF
:1019F00080B500AF00216FF00400FFF7BFFF00BF0C
:101A000080BD000080B483B000AFEFF305833B607E
:101A10003B68002B03D06FF005037B600CE00A4BA2
:101A20001B68002B05D1084B01221A6000237B6044
:101A300002E04FF0FF337B607B6818460C37BD46F1
:101A40005DF8047B704700BF7800002080B582B04D
:101A500000AFEFF305833B603B68002B03D06FF0D2
:101A600005037B6010E00B4B1B68012B09D1FFF7CE
:101A7000BFFF084B02221A6001F04AFA00237B6084
:101A800002E04FF0FF337B607B6818460837BD46A5
:101A900080BD00BF7800002080B485B000AFF86042
:101AA000B9607A60FB68074A1A60BB68064A1A6028
:101AB0007B6880221A6000BF1437BD465DF8047B46
:101AC000704700BF7C000020D800002080B485B0A3
:101AD00000AFF860B9607A60FB68074A1A60BB68BB
:101AE000064A1A607B684FF480721A6000BF143790
:101AF000BD465DF8047B7047D80200203403002007
:101B000080B483B000AF78607B6803F108027B6823
:101B10005A607B684FF0FF329A607B6803F10802DD
:101B20007B68DA607B6803F108027B681A617B6876
:101B300000221A6000BF0C37BD465DF8047B704779
:101B400080B483B000AF78607B6800221A6100BF68
:101B50000C37BD465DF8047B704780B485B000AF9C
:101B6000786039607B685B68FB603B68FA685A6044
:101B7000FB689A683B689A60FB689B683A685A60A1
:101B8000FB683A689A603B687A681A617B681B68F0
:101B90005A1C7B681A6000BF1437BD465DF8047B91
:101BA000704780B485B000AF786039603B681B68CF
:101BB000BB60BB68B3F1FF3F03D17B681B69FB606F
:101BC0000CE07B680833FB6002E0FB685B68FB604D
:101BD000FB685B681B68BA689A42F6D2FB685A6871
:101BE0003B685A603B685B683A689A603B68FA6891
:101BF0009A60FB683A685A603B687A681A617B6849
:101C00001B685A1C7B681A6000BF1437BD465DF81C
:101C1000047B704780B485B000AF78607B681B6937
:101C2000FB607B685B687A6892689A607B689B68F7
:101C30007A6852685A60FB685B687A689A4203D196
:101C40007B689A68FB685A607B6800221A61FB68AF
:101C50001B685A1EFB681A60FB681B68184614371D
:101C6000BD465DF8047B704780B485B000AFF86076
:101C7000B9607A60FB68043BFB60FB684FF08072E0
:101C80001A60FB68043BFB60BB6823F00102FB6841
:101C90001A60FB68043BFB600C4AFB681A60FB6837
:101CA000143BFB607A68FB681A60FB68043BFB60CE
:101CB000FB686FF002021A60FB68203BFB60FB6868
:101CC00018461437BD465DF8047B7047D11C0008E8
:101CD00080B485B000AF00237B60124B1B68B3F16A
:101CE000FF3F0AD04FF0500383F31188BFF36F8F8B
:101CF000BFF34F8FFB6000BFFEE74FF0500383F34D
:101D00001188BFF36F8FBFF34F8FBB6000BF00BF61
:101D10007B68002BFCD000BF00BF1437BD465DF8C8
:101D2000047B704708000020000000000000000055
:101D3000074B19680868B0E8F04F80F30988BFF3D3
:101D40006F8F4FF0000080F311887047AFF3008071
:101D50009407002000BF00BF08480068006880F3B7
:101D600008884FF0000080F3148862B661B6BFF3B4
:101D70004F8FBFF36F8F00DF00BF00BF08ED00E0A3
:101D800080B586B000AF464B1B68464A93420AD1E5
:101D90004FF0500383F31188BFF36F8FBFF34F8F62
:101DA0003B6100BFFEE73E4B1B683F4A93420AD1AE
:101DB0004FF0500383F31188BFF36F8FBFF34F8F42
:101DC000FB6000BFFEE7394B7B617B691B78DBB2B0
:101DD0007B607B69FF221A707B691B78DBB2FB702A
:101DE000FB78DBB203F05003DAB2314B1A70314B9F
:101DF00007221A6009E02F4B1B68013B2D4A136034
:101E0000FB78DBB25B00DBB2FB70FB78DBB203F08C
:101E10008003802BEFD0274B1B68C3F10703042BF3
:101E20000AD04FF0500383F31188BFF36F8FBFF3D5
:101E30004F8FBB6000BFFEE71E4B1B681B021D4A95
:101E400013601C4B1B6803F4E0631A4A13607B6841
:101E5000DAB27B691A70184B1B68174A43F4700397
:101E60001360154B1B68144A43F07043136000F075
:101E7000DDF8124B00221A6000F0FCF8104B1B68D2
:101E80000F4A43F040431360FFF766FF01F01CFA6E
:101E9000FFF71EFF002318461837BD4680BD00BF60
:101EA00000ED00E071C20F4170C20F4100E400E09C
:101EB000340700203807002020ED00E00800002053
:101EC00034EF00E080B483B000AF4FF0500383F3F1
:101ED0001188BFF36F8FBFF34F8F7B6000BF0F4B35
:101EE0001B6801330D4A13600C4B1B68012B0FD18B
:101EF0000B4B1B68DBB2002B0AD04FF0500383F36F
:101F00001188BFF36F8FBFF34F8F3B6000BFFEE7B9
:101F100000BF0C37BD465DF8047B70470800002009
:101F200004ED00E080B483B000AF124B1B68002BBF
:101F30000AD14FF0500383F31188BFF36F8FBFF3C3
:101F40004F8F7B6000BFFEE70A4B1B68013B094ACD
:101F50001360084B1B68002B05D100233B603B68D6
:101F600083F3118800BF00BF0C37BD465DF8047BCA
:101F7000704700BF080000200000000000000000C3
:101F8000EFF30980BFF36F8F154B1A681EF0100F27
:101F900008BF20ED108A20E9F04F10602DE90900FC
:101FA0004FF0500080F31188BFF34F8FBFF36F8F56
:101FB00001F08AF94FF0000080F3118809BC19681C
:101FC0000868B0E8F04F1EF0100F08BFB0EC108AA0
:101FD00080F30988BFF36F8F704700BFAFF30080B5
:101FE0009407002000BF00BF80B582B000AF4FF063
:101FF000500383F31188BFF36F8FBFF34F8F7B6064
:1020000000BF01F0A7F80346002B03D0064B4FF0AA
:1020100080521A6000233B603B6883F3118800BF45
:1020200000BF0837BD4680BD04ED00E080B400AFBE
:102030000B4B00221A600B4B00221A600A4B1B68E4
:102040000A4AA2FB03239B09094A013B1360044B84
:1020500007221A6000BFBD465DF8047B704700BFD1
:1020600010E000E018E000E000000020D34D621016
:1020700014E000E0DFF80C00016841F47001016039
:10208000704700BF88ED00E080B485B000AFEFF38B
:102090000583FB60FB680F2B14D9174AFB681344B8
:1020A0001B78FB72154B1B78FA7A9A420AD24FF0D2
:1020B000500383F31188BFF36F8FBFF34F8F7B60A3
:1020C00000BFFEE70E4B1B6803F4E0620D4B1B687C
:1020D0009A420AD94FF0500383F31188BFF36F8FF0
:1020E000BFF34F8F3B6000BFFEE700BF1437BD4614
:1020F0005DF8047B704700BFF0E300E03407002088
:102100000CED00E03807002080B586B000AF7860A5
:102110007B687B617B68002B4DD008235B427A692A
:1021200013447B617B693B613B695A68244B1B68A4
:102130001340002B0AD14FF0500383F31188BFF3F3
:102140006F8FBFF34F8FFB6000BFFEE73B691B68DB
:10215000002B0AD04FF0500383F31188BFF36F8F29
:10216000BFF34F8FBB6000BFFEE73B695A68144B5B
:102170001B681340002B1ED03B691B68002B1AD133
:102180003B695A680E4B1B68DB431A403B695A6037
:1021900000F024FF3B695A680A4B1B681344094A44
:1021A0001360386900F012F8074B1B680133064AC8
:1021B000136000F021FF00BF1837BD4680BD00BF8F
:1021C00050070020480700204C07002080B485B04D
:1021D00000AF7860284BFB6002E0FB681B68FB6087
:1021E000FB681B687A689A42F7D8FB68BB60FB689B
:1021F0005B68BA6813447A689A4208D1FB685A68E7
:102200007B685B681A44FB685A60FB687B607B688C
:10221000BB607B685B68BA681A44FB681B689A42BB
:1022200018D1FB681A68154B1B689A420DD07B6861
:102230005A68FB681B685B681A447B685A60FB68D5
:102240001B681A687B681A6008E00C4B1A687B6888
:102250001A6003E0FB681A687B681A60FA687B689A
:102260009A4202D0FB687A681A6000BF1437BD46F4
:102270005DF8047B704700BF3C0700204407002046
:1022800080B584B000AF786039607B68FB60FB6824
:10229000002B0AD14FF0500383F31188BFF36F8FE7
:1022A000BFF34F8FBB6000BFFEE7FFF70BFEFB687D
:1022B0001A68FB68DB6BF968096C01FB03F31A44CD
:1022C000FB689A60FB6800229A63FB681A68FB68E7
:1022D0005A60FB681A68FB68DB6B013BF968096CA4
:1022E00001FB03F31A44FB68DA60FB68FF2283F802
:1022F0004420FB68FF2283F845203B68002B14D163
:10230000FB681B69002B1AD0FB681033184601F0DC
:1023100089F80346002B12D00C4B4FF080521A6004
:10232000BFF34F8FBFF36F8F09E0FB681033184680
:10233000FFF7E6FBFB6824331846FFF7E1FBFFF7E6
:10234000F1FD012318461037BD4680BD04ED00E0C5
:1023500080B58EB002AFF860B9607A603B60FB6810
:10236000002B0AD14FF0500383F31188BFF36F8F16
:10237000BFF34F8FBB6200BFFEE73B68002B0AD163
:102380004FF0500383F31188BFF36F8FBFF34F8F6C
:102390007B6200BFFEE77B68002B02D0BB68002B8E
:1023A00001D0012300E00023002B0AD14FF050039D
:1023B00083F31188BFF36F8FBFF34F8F3B6200BF72
:1023C000FEE77B68002B02D1BB68002B01D1012303
:1023D00000E00023002B0AD14FF0500383F3118853
:1023E000BFF36F8FBFF34F8FFB6100BFFEE750233A
:1023F0007B617B69502B0AD04FF0500383F3118827
:10240000BFF36F8FBFF34F8FBB6100BFFEE77B69E8
:102410003B68FB62FB6A002B0DD0FB6A012283F84C
:10242000462097F83820FB6A009313467A68B9680B
:10243000F86800F005F8FB6A18463037BD4680BDE5
:1024400080B584B000AFF860B9607A60FB70BB689B
:10245000002B03D1BB69BA691A6002E0BB697A68D4
:102460001A60BB69FA68DA63BB69BA681A64012149
:10247000B869FFF705FFBB69FA7883F84C2000BF05
:102480001037BD4680BD000080B58EB000AFF8604B
:10249000B9607A603B6000237B63FB683B633B6B06
:1024A000002B0AD14FF0500383F31188BFF36F8FD5
:1024B000BFF34F8FBB6200BFFEE7BB68002B03D1A9
:1024C0003B6B1B6C002B01D1012300E00023002B90
:1024D0000AD14FF0500383F31188BFF36F8FBFF31E
:1024E0004F8F7B6200BFFEE73B68022B03D13B6B43
:1024F000DB6B012B01D1012300E00023002B0AD16B
:102500004FF0500383F31188BFF36F8FBFF34F8FEA
:102510003B6200BFFEE701F043F90346002B02D106
:102520007B68002B01D1012300E00023002B0AD19E
:102530004FF0500383F31188BFF36F8FBFF34F8FBA
:10254000FB6100BFFEE7FFF7BDFC3B6B9A6B3B6B8B
:10255000DB6B9A4202D33B68022B29D13A68B968F7
:10256000386B00F00BFAF8623B6B5B6A002B10D003
:102570003B6B2433184600F055FF0346002B13D065
:102580003F4B4FF080521A60BFF34F8FBFF36F8FF6
:102590000AE0FB6A002B07D0394B4FF080521A60DB
:1025A000BFF34F8FBFF36F8FFFF7BCFC012363E0D6
:1025B0007B68002B03D1FFF7B5FC00235CE07B6B4D
:1025C000002B06D107F11403184600F08FFF0123FA
:1025D0007B63FFF7A7FC00F001FDFFF773FC3B6B8B
:1025E00093F844305BB2B3F1FF3F03D13B6B002261
:1025F00083F844203B6B93F845305BB2B3F1FF3F67
:1026000003D13B6B002283F84520FFF78BFC3A1D7A
:1026100007F114031146184600F07EFF0346002B15
:1026200024D1386B00F0A2FA0346002B18D03B6B84
:1026300010337A681146184600F0A4FE386B00F09B
:102640002DFA00F0D9FC0346002B7FF47CAF0C4B35
:102650004FF080521A60BFF34F8FBFF36F8F72E756
:10266000386B00F01BFA00F0C7FC6CE7386B00F029
:1026700015FA00F0C1FC002318463837BD4680BD6E
:1026800004ED00E080B590B000AFF860B9607A600A
:102690003B60FB68BB63BB6B002B0AD14FF0500360
:1026A00083F31188BFF36F8FBFF34F8FBB6200BFFF
:1026B000FEE7BB68002B03D1BB6B1B6C002B01D169
:1026C000012300E00023002B0AD14FF0500383F3D5
:1026D0001188BFF36F8FBFF34F8F7B6200BFFEE7A0
:1026E0003B68022B03D1BB6BDB6B012B01D10123B8
:1026F00000E00023002B0AD14FF0500383F3118830
:10270000BFF36F8FBFF34F8F3B6200BFFEE7FFF752
:10271000BBFCEFF311824FF0500383F31188BFF33A
:102720006F8FBFF34F8FFA61BB61FB697B63BB6B3C
:102730009A6BBB6BDB6B9A4202D33B68022B2FD1A7
:10274000BB6B93F8453087F83330BB6B9B6BFB62F8
:102750003A68B968B86B00F011F997F93330B3F102
:10276000FF3F12D1BB6B5B6A002B16D0BB6B2433CF
:10277000184600F057FE0346002B0ED07B68002B56
:102780000BD07B6801221A6007E097F833300133E1
:10279000DBB25AB2BB6B83F845200123FB6301E037
:1027A0000023FB637B6B7B617B6983F3118800BF34
:1027B000FB6B18464037BD4680BD000080B58CB02D
:1027C00000AFF860B9607A600023FB62FB68BB620F
:1027D000BB6A002B0AD14FF0500383F31188BFF37B
:1027E0006F8FBFF34F8F3B6200BFFEE7BB68002BCC
:1027F00003D1BB6A1B6C002B01D1012300E0002335
:10280000002B0AD14FF0500383F31188BFF36F8F71
:10281000BFF34F8FFB6100BFFEE700F0C1FF03462F
:10282000002B02D17B68002B01D1012300E00023A3
:10283000002B0AD14FF0500383F31188BFF36F8F41
:10284000BFF34F8FBB6100BFFEE7FFF73BFBBB6AE7
:102850009B6B7B627B6A002B1FD0B968B86A00F063
:10286000F7F87B6A5A1EBB6A9A63BB6A1B69002B26
:102870000FD0BB6A1033184600F0D4FD0346002B7E
:1028800007D03D4B4FF080521A60BFF34F8FBFF31C
:102890006F8FFFF747FB012369E07B68002B03D1B3
:1028A000FFF740FB002362E0FB6A002B06D107F133
:1028B0001003184600F01AFE0123FB62FFF732FBFB
:1028C00000F08CFBFFF7FEFABB6A93F844305BB272
:1028D000B3F1FF3F03D1BB6A002283F84420BB6AF7
:1028E00093F845305BB2B3F1FF3F03D1BB6A0022DE
:1028F00083F84520FFF716FB3A1D07F11003114638
:10290000184600F009FE0346002B23D1B86A00F0F8
:1029100017F90346002B17D0BB6A24337A68114697
:10292000184600F02FFDB86A00F0B8F800F064FB1C
:102930000346002B89D1104B4FF080521A60BFF331
:102940004F8FBFF36F8F80E7B86A00F0A7F800F0F1
:1029500053FB7AE7B86A00F0A1F800F04DFBB86AC3
:1029600000F0EEF80346002B3FF46FAF002318464B
:102970003037BD4680BD00BF04ED00E080B586B0B5
:1029800000AFF860B9607A6000237B61FB689B6BE5
:102990003B61FB681B6C002B0DD1FB681B68002B97
:1029A0004DD1FB689B68184600F018FF7861FB6802
:1029B00000229A6043E07B68002B19D1FB685868BD
:1029C000FB681B6C1A46B96801F03CFBFB685A684F
:1029D000FB681B6C1A44FB685A60FB685A68FB680A
:1029E0009B689A422BD3FB681A68FB685A6026E002
:1029F000FB68D868FB681B6C1A46B96801F022FBBB
:102A0000FB68DA68FB681B6C5B421A44FB68DA609F
:102A1000FB68DA68FB681B689A4207D2FB689A6811
:102A2000FB681B6C5B421A44FB68DA607B68022B14
:102A300005D13B69002B02D03B69013B3B613B69FF
:102A40005A1CFB689A637B6918461837BD4680BDDF
:102A500080B582B000AF786039607B681B6C002B5A
:102A600018D07B68DA687B681B6C1A447B68DA6074
:102A70007B68DA687B689B689A4203D37B681A6834
:102A80007B68DA607B68D9687B681B6C1A4638689B
:102A900001F0D8FA00BF0837BD4680BD80B584B0CC
:102AA00000AF7860FFF70EFA7B6893F84530FB7350
:102AB00011E07B685B6A002B12D07B6824331846D8
:102AC00000F0B0FC0346002B01D000F087FDFB7B3B
:102AD000013BDBB2FB7397F90F30002BE9DC00E020
:102AE00000BF7B68FF2283F84520FFF71BFAFFF742
:102AF000E9F97B6893F84430BB7311E07B681B698C
:102B0000002B12D07B681033184600F08BFC034674
:102B1000002B01D000F062FDBB7B013BDBB2BB733D
:102B200097F90E30002BE9DC00E000BF7B68FF2244
:102B300083F84420FFF7F6F900BF1037BD4680BD8B
:102B400080B584B000AF7860FFF7BCF97B689B6B01
:102B5000002B02D10123FB6001E00023FB60FFF7A3
:102B6000E1F9FB6818461037BD4680BD80B584B0DA
:102B700000AF7860FFF7A6F97B689A6B7B68DB6B28
:102B80009A4202D10123FB6001E00023FB60FFF7C2
:102B9000C9F9FB6818461037BD4680BD80B485B0C2
:102BA00000AF786039600023FB6014E00F4AFB68D7
:102BB00052F83330002B0BD10C49FB683A6841F8CE
:102BC00033200A4AFB68DB0013447A685A6006E047
:102BD000FB680133FB60FB68072BE7D900BF00BF30
:102BE0001437BD465DF8047B704700BF54070020D2
:102BF00080B586B000AFF860B9607A60FB687B6131
:102C0000FFF760F97B6993F844305BB2B3F1FF3FA3
:102C100003D17B69002283F844207B6993F8453017
:102C20005BB2B3F1FF3F03D17B69002283F84520FB
:102C3000FFF778F97B699B6B002B06D17B69243306
:102C40007A68B968184600F0C1FB7869FFF726FF7B
:102C500000BF1837BD4680BD80B58EB004AFF860A8
:102C6000B9607A603B607B6B002B0AD14FF0500358
:102C700083F31188BFF36F8FBFF34F8F3B6200BFA9
:102C8000FEE7BB6B002B0AD14FF0500383F3118892
:102C9000BFF36F8FBFF34F8FFB6100BFFEE75C2375
:102CA0003B613B695C2B0AD04FF0500383F31188E2
:102CB000BFF36F8FBFF34F8FBB6100BFFEE73B6970
:102CC000BB6B002B1ED07B6B002B1BD0BB6B7B62C6
:102CD0007B6A7A6B1A637B6A022283F8592000238D
:102CE00003937B6A029307F1140301933B6B0093F8
:102CF0003B687A68B968F86800F00BF8786A00F009
:102D000097F801E000237B617B6918462837BD46B0
:102D100080BD80B588B000AFF860B9607A603B6074
:102D20003B6B186B7B689B001A46A52101F098F954
:102D30003B6B1A6B7B6803F18043013B9B001344A0
:102D4000BB61BB6923F00703BB61BB6903F00703E9
:102D5000002B0AD04FF0500383F31188BFF36F8F1D
:102D6000BFF34F8F7B6100BFFEE7BB68002B1FD016
:102D70000023FB6112E0BA68FB69134419783A6BCF
:102D8000FB69134434330A461A70BA68FB6913446A
:102D90001B78002B06D0FB690133FB61FB690F2B0D
:102DA000E9D900E000BF3B6B002283F8432003E039
:102DB0003B6B002283F83420BB6A372B01D93723C1
:102DC000BB623B6BBA6ADA623B6BBA6ADA643B6B32
:102DD00000221A653B6B04331846FEF7B1FE3B6BCD
:102DE00018331846FEF7ACFE3B6B3A6B1A61BB6AB0
:102DF000C3F138023B6B9A613B6B3A6B5A623B6B97
:102E000000225A653B6B002283F858203A68F96823
:102E1000B869FEF729FF02463B6B1A60FB6A002B7C
:102E200002D0FB6A3A6B1A6000BF2037BD4680BDF6
:102E300080B582B000AF7860FFF744F82D4B1B6877
:102E400001332C4A13602C4B1B68002B09D12A4AF2
:102E50007B681360274B1B68012B10D100F0E2FB4D
:102E60000DE0264B1B68002B09D1234B1B68DA6A47
:102E70007B68DB6A9A4202D81F4A7B681360204B4A
:102E80001B6801331E4A13601D4B1A687B685A6425
:102E90007B68DA6A1B4B1B689A4203D97B68DB6A42
:102EA000184A13607B68DA6A13469B0013449B0040
:102EB000154A1A447B68043319461046FEF74DFE46
:102EC000FFF730F80D4B1B68002B0ED00A4B1B6828
:102ED000DA6A7B68DB6A9A4207D20C4B4FF0805269
:102EE0001A60BFF34F8FBFF36F8F00BF0837BD4627
:102EF00080BD00BF680C002094070020740C0020E7
:102F0000840C0020700C00209807002004ED00E0E5
:102F100080B58AB004AF0023BB6000237B603A46D3
:102F2000391D07F108031846FEF7B6FD39687B68BE
:102F3000BA68029201930023009300230A462149B4
:102F40002148FFF789FE0346204A13601F4B1B6888
:102F5000002B02D001237B6101E000237B617B69B0
:102F6000012B02D100F0FCFC78617B69012B16D1AA
:102F70004FF0500383F31188BFF36F8FBFF34F8F70
:102F80003B6100BF124B4FF0FF321A60114B012220
:102F90001A60114B00221A60FEF7F2FE0EE07B6908
:102FA000B3F1FF3F0AD14FF0500383F31188BFF311
:102FB0006F8FBFF34F8FFB6000BFFEE700BF183776
:102FC000BD4680BD88400008F53500088C0C002007
:102FD000880C0020740C00206C0C002080B400AF22
:102FE000044B1B680133034A136000BFBD465DF804
:102FF000047B7047900C002080B584B000AF0023A4
:10300000FB600023BB60424B1B68002B0AD14FF0D2
:10301000500383F31188BFF36F8FBFF34F8F3B6073
:1030200000BFFEE7FEF74EFF394B1B68013B384AF5
:103030001360374B1B68002B62D1364B1B68002B8B
:103040005ED02FE0344BDB68DB68FB60FB68183335
:103050001846FEF7DFFDFB6804331846FEF7DAFD7D
:10306000FB68DA6A2D4B1B689A4203D9FB68DB6A5E
:103070002A4A1360FB68DA6A13469B0013449B00DC
:10308000274A1A44FB68043319461046FEF765FDCB
:10309000FB68DA6A234B1B68DB6A9A4202D3224B35
:1030A00001221A601C4B1B68002BCBD1FB68002B44
:1030B00001D000F055FB1D4B1B687B607B68002B2B
:1030C00010D000F047F80346002B02D0164B012227
:1030D0001A607B68013B7B607B68002BF1D1134B4E
:1030E00000221A60104B1B68002B09D00123BB6023
:1030F0000F4B4FF080521A60BFF34F8FBFF36F8FAB
:10310000FEF710FFBB6818461037BD4680BD00BFF4
:10311000900C0020680C0020280C0020700C00206F
:1031200098070020940700207C0C0020780C0020D9
:1031300004ED00E080B483B000AF054B1B687B60FA
:103140007B6818460C37BD465DF8047B704700BFAE
:103150006C0C002080B586B000AF00237B614F4B24
:103160001B68002B40F08F804D4B1B6801333B6187
:103170004B4A3B6913603B69002B20D1494B1B68CC
:103180001B68002B0AD04FF0500383F31188BFF364
:103190006F8FBFF34F8F3B6000BFFEE7414B1B6853
:1031A000FB60414B1B683F4A13603F4AFB6813605A
:1031B0003E4B1B6801333D4A136000F0D1FA3C4B93
:1031C0001B683A699A4249D3364B1B681B68002B2F
:1031D00004D1374B4FF0FF321A603FE0314B1B6890
:1031E000DB68DB68BB60BB685B687B603A697B68F7
:1031F0009A4203D22E4A7B6813602FE0BB680433E7
:103200001846FEF707FDBB689B6A002B04D0BB681D
:1032100018331846FEF7FEFCBB68DA6A254B1B68BC
:103220009A4203D9BB68DB6A224A1360BB68DA6A38
:1032300013469B0013449B001F4A1A44BB68043387
:1032400019461046FEF789FCBB68DA6A1B4B1B68FF
:10325000DB6A9A42B8D301237B61B5E7174B1B6841
:10326000DA6A154913469B0013449B000B441B6804
:10327000012B01D901237B61114B1B68002B07D067
:1032800001237B6104E00F4B1B6801330D4A13607F
:103290007B6918461837BD4680BD00BF900C0020E2
:1032A0006C0C0020200C0020240C0020800C00203E
:1032B000880C0020700C0020980700209407002044
:1032C0007C0C0020780C002080B485B000AF284B27
:1032D0001B68002B03D0274B01221A6041E0254BCD
:1032E00000221A60244B1B68FB6010E0FB68002B77
:1032F0000AD14FF0500383F31188BFF36F8FBFF3F0
:103300004F8F7B6000BFFEE7FB68013BFB601B4902
:10331000FA6813469B0013449B000B441B68002B68
:10332000E4D0FA6813469B0013449B00134A1344ED
:10333000BB60BB685B685A68BB685A60BB685A6808
:10334000BB6808339A4204D1BB685B685A68BB68A3
:103350005A60BB685B68DB68094A1360064AFB6811
:10336000136000BF1437BD465DF8047B704700BF93
:10337000900C00207C0C0020700C0020980700208E
:103380009407002080B584B000AF786039607B6816
:10339000002B0AD14FF0500383F31188BFF36F8FD6
:1033A000BFF34F8FFB6000BFFEE7074B1B6818336E
:1033B00019467868FEF7F5FB0121386800F07CFAC1
:1033C00000BF1037BD4680BD9407002080B586B091
:1033D00000AFF860B9607A60FB68002B0AD14FF04B
:1033E000500383F31188BFF36F8FBFF34F8F7B615F
:1033F00000BFFEE70A4B1B6818331946F868FEF752
:10340000ACFB7B68002B02D04FF0FF33BB607968C8
:10341000B86800F051FA00BF1837BD4680BD00BF44
:103420009407002080B586B000AF78607B68DB68C9
:10343000DB683B613B69002B0AD14FF0500383F3FB
:103440001188BFF36F8FBFF34F8FFB6000BFFEE7A4
:103450003B6918331846FEF7DDFB1E4B1B68002B3B
:103460001DD13B6904331846FEF7D4FB3B69DA6A89
:10347000194B1B689A4203D93B69DB6A164A1360F1
:103480003B69DA6A13469B0013449B00134A1A44B3
:103490003B69043319461046FEF75FFB05E03B69C4
:1034A000183319460E48FEF758FB3B69DA6A0D4B94
:1034B0001B68DB6A9A4205D901237B610A4B012212
:1034C0001A6001E000237B617B6918461837BD460E
:1034D00080BD00BF900C0020700C002098070020D9
:1034E000280C0020940700207C0C002080B483B0BE
:1034F00000AF7860064B1A687B681A60054B1A6843
:103500007B685A6000BF0C37BD465DF8047B70478E
:10351000800C00206C0C002080B588B000AF786073
:1035200039607B68002B0AD14FF0500383F3118878
:10353000BFF36F8FBFF34F8F3B6100BFFEE73B6868
:10354000002B0AD14FF0500383F31188BFF36F8F24
:10355000BFF34F8FFB6000BFFEE7FEF7B3FC1D4BD0
:103560001B68BB617B685B68BA69D31A7B613B6887
:103570001B68B3F1FF3F02D10023FB6123E07B68AE
:103580001A68154B1B689A4207D07B685B68BA695A
:103590009A4202D30123FB6115E03B681B687A69FC
:1035A0009A420BD23B681A687B69D21A3B681A6050
:1035B0007868FFF79BFF0023FB6104E03B68002273
:1035C0001A600123FB61FEF7ADFCFB69184620374A
:1035D000BD4680BD6C0C0020800C002080B400AF84
:1035E000034B01221A6000BFBD465DF8047B7047A3
:1035F0007C0C002080B582B000AF786000F052F8FB
:10360000064B1B68012BF9D9054B4FF080521A600D
:10361000BFF34F8FBFF36F8FF0E700BF9807002015
:1036200004ED00E080B582B000AF00237B600CE0C9
:103630007A6813469B0013449B00124A13441846B1
:10364000FEF75EFA7B6801337B607B68372BEFD92E
:103650000D48FEF755FA0D48FEF752FA0C48FEF7F2
:103660004FFA0C48FEF74CFA0B48FEF749FA0B4BA1
:10367000054A1A600A4B054A1A6000BF0837BD4662
:1036800080BD00BF98070020F80B00200C0C002024
:10369000280C00203C0C0020540C0020200C0020A2
:1036A000240C002080B582B000AF19E0FEF70AFCC0
:1036B000104BDB68DB687B607B6804331846FEF7E1
:1036C000A9FA0D4B1B68013B0B4A13600B4B1B689F
:1036D000013B0A4A1360FEF725FC786800F010F8F9
:1036E000064B1B68002BE1D100BF00BF0837BD4669
:1036F00080BD00BF3C0C0020680C0020500C002056
:1037000080B584B000AF78607B6893F85930002BA7
:1037100008D17B681B6B1846FEF7F6FC7868FEF74D
:10372000F3FC18E07B6893F85930012B03D17868DB
:10373000FEF7EAFC0FE07B6893F85930022B0AD0C1
:103740004FF0500383F31188BFF36F8FBFF34F8F98
:10375000FB6000BFFEE700BF1037BD4680BD000024
:1037600080B483B000AF0C4B1B681B68002B04D1E6
:103770000A4B4FF0FF321A6008E0074B1B68DB680A
:10378000DB687B607B685B68044A136000BF0C37B2
:10379000BD465DF8047B7047200C0020880C00209B
:1037A00080B483B000AF0B4B1B68002B02D1012308
:1037B0007B6008E0084B1B68002B02D102237B6072
:1037C00001E000237B607B6818460C37BD465DF83E
:1037D000047B7047740C0020900C002080B586B0EC
:1037E00000AF78607B683B6100237B617B68002BC6
:1037F00056D02E4B1B683A699A420AD04FF05003BC
:1038000083F31188BFF36F8FBFF34F8FFB6000BF4F
:10381000FEE73B691B6D002B0AD14FF0500383F389
:103820001188BFF36F8FBFF34F8FBB6000BFFEE700
:103830003B691B6D5A1E3B691A653B69DA6A3B6935
:10384000DB6C9A422CD03B691B6D002B28D13B6965
:1038500004331846FEF7DEF93B69DA6C3B69DA623D
:103860003B69DB6AC3F138023B699A613B69DA6AFA
:103870000F4B1B689A4203D93B69DB6A0C4A136001
:103880003B69DA6A13469B0013449B00094A1A44B9
:103890003B69043319461046FEF75FF901237B614B
:1038A0007B6918461837BD4680BD00BF94070020CD
:1038B000700C00209807002080B584B000AF7860BD
:1038C0003960214B1B68FB60204B1B680433184692
:1038D000FEF7A0F97B68B3F1FF3F0AD13B68002BEC
:1038E00007D01A4B1B68043319461948FEF735F9FF
:1038F00026E0FA687B681344BB60144B1B68BA6807
:103900005A60BA68FB689A4209D2124B1A680F4B88
:103910001B68043319461046FEF743F910E00E4BBE
:103920001A680A4B1B68043319461046FEF739F92A
:103930000A4B1B68BA689A4202D2084ABB681360F5
:1039400000BF1037BD4680BD6C0C002094070020DE
:10395000540C0020240C0020200C0020880C002097
:1039600080B58AB004AF00237B6100F007FB1C4BDD
:103970001B68002B21D00023FB600023BB603A1D95
:1039800007F1080107F10C031846FEF79FF8796864
:10399000BB68FA68029201930223009300230A464F
:1039A00010491148FFF758F90346104A13600F4BAE
:1039B0001B68002B01D001237B617B69002B0AD19E
:1039C0004FF0500383F31188BFF36F8FBFF34F8F16
:1039D0003B6100BFFEE77B6918461837BD4680BDD6
:1039E000C40C002090400008253B0008C80C0020B3
:1039F00080B58AB000AFF860B9607A603B600023A0
:103A00007B62FB68002B0AD14FF0500383F31188CF
:103A1000BFF36F8FBFF34F8F3B6200BFFEE71A4BC0
:103A20001B68002B2AD0BB683B617B687B61FB680D
:103A3000BB61BB68052B18DCFFF7B2FE0346022B07
:103A400009D1114B186807F1100100233A6BFEF7FA
:103A50001BFD786212E00C4B186807F1100100237F
:103A60000022FEF711FD786208E0074B186807F1A5
:103A7000100100233A68FEF705FE78627B6A18465B
:103A80002837BD4680BD00BFC40C002080B588B07B
:103A900002AF78603960224B1B68DB68DB687B61B2
:103AA0007B6904331846FEF7B5F87B6993F8283034
:103AB00003F00403002B22D07B699A697B68D1183C
:103AC0007B683A68786900F0D1F80346002B1FD074
:103AD0000023009300237A6800217869FFF788FFAC
:103AE00038613B69002B13D14FF0500383F31188E9
:103AF000BFF36F8FBFF34F8FFB6000BFFEE77B69A3
:103B000093F8283023F00103DAB27B6983F8282088
:103B10007B691B6A7869984700BF1837BD4680BD2E
:103B2000BC0C002080B584B000AF786007F10803BA
:103B3000184600F057F8F860BB681946F86800F0BE
:103B400003F800F0D5F8F1E780B584B000AF7860F5
:103B50003960FFF743FA07F10803184600F066F8EA
:103B6000F860BB68002B30D13B68002B0AD17A6823
:103B7000FB689A4206D8FFF73FFAF9687868FFF7C2
:103B800085FF24E03B68002B08D0134B1B681B68A3
:103B9000002B01D1012300E000233B600F4B18688C
:103BA0007A68FB68D31A3A681946FFF721F8FFF7DD
:103BB00023FA0346002B0AD1094B4FF080521A60BA
:103BC000BFF34F8FBFF36F8F01E0FFF715FA00BF10
:103BD0001037BD4680BD00BFC00C0020C40C0020C3
:103BE00004ED00E080B485B000AF78600E4B1B6838
:103BF0001B68002B01D1012200E000227B681A60C3
:103C00007B681B68002B05D1074B1B68DB681B68B2
:103C1000FB6001E00023FB60FB6818461437BD46DB
:103C20005DF8047B704700BFBC0C002080B584B0F9
:103C300000AF7860FFF77EFAF8600B4B1B68FA68FC
:103C40009A4205D200F036F97B6801221A6002E040
:103C50007B6800221A60044AFB681360FB68184600
:103C60001037BD4680BD00BFCC0C002080B586B0AB
:103C700000AFF860B9607A603B6000237B61FB684D
:103C8000BA685A60FB68FA681A61BA687B689A4237
:103C900012D87A683B68D21AFB689B699A4202D3B1
:103CA00001237B611BE0104B1A68FB680433194643
:103CB0001046FDF776FF12E07A683B689A4206D21A
:103CC000BA683B689A4202D301237B6107E0074B45
:103CD0001A68FB68043319461046FDF762FF7B69DA
:103CE00018461837BD4680BDC00C0020BC0C002013
:103CF00080B58EB002AFCAE07B68002B18DA3B1D9E
:103D00000433FB62FB6A002B0AD14FF0500383F3AC
:103D10001188BFF36F8FBFF34F8FFB6100BFFEE7CA
:103D2000FB6A1B68FA6A5068FA6A926811469847FB
:103D30007B68002BC0F2AA80FB68BB62BB6A5B6930
:103D4000002B04D0BB6A04331846FDF763FF3B46E3
:103D50001846FFF76BFF78627B68092B00F29780AB
:103D600001A252F823F000BF913D0008913D0008E8
:103D7000913D0008053E0008193E0008633E00081A
:103D8000913D0008913D0008053E0008193E0008DD
:103D9000BB6A93F8283043F00103DAB2BB6A83F8B8
:103DA0002820BA68BB6A9B69D118BB687A6AB86A6E
:103DB000FFF75CFF0346002B69D0BB6A1B6AB86A39
:103DC0009847BB6A93F8283003F00403002B5ED0B9
:103DD000BA68BB6A9B691A44002300930023002140
:103DE000B86AFFF705FE38623B6A002B4FD14FF0EF
:103DF000500383F31188BFF36F8FBFF34F8FBB6105
:103E000000BFFEE7BB6A93F8283023F00103DAB263
:103E1000BB6A83F828203AE0BB6A93F8283043F065
:103E20000103DAB2BB6A83F82820BA68BB6A9A61D8
:103E3000BB6A9B69002B0AD14FF0500383F31188B2
:103E4000BFF36F8FBFF34F8F7B6100BFFEE7BB6A8D
:103E50009A697B6AD1187B6A7A6AB86AFFF706FFAB
:103E600015E0BB6A93F8283003F00203002B03D15E
:103E7000B86AFEF749F90AE0BB6A93F8283023F0E4
:103E80000103DAB2BB6A83F8282000E000BF084BC8
:103E90001B68391D00221846FEF790FC0346002BD4
:103EA0007FF42AAF00BF00BF3037BD4680BD00BFE2
:103EB000C40C002080B588B002AF48E02D4B1B68D1
:103EC000DB681B683B612B4B1B68DB68DB68FB60B6
:103ED000FB6804331846FDF79DFEFB681B6AF86813
:103EE0009847FB6893F8283003F00403002B2ED08A
:103EF000FB689B693A691344BB60BA683B699A42A4
:103F00000ED9FB68BA685A60FB68FA681A61194BE7
:103F10001A68FB68043319461046FDF742FE16E0A6
:103F20000023009300233A690021F868FFF760FD41
:103F300078607B68002B0AD14FF0500383F311881F
:103F4000BFF36F8FBFF34F8F3B6000BFFEE7094B9E
:103F50001B681B68002BB1D1064B1B687B61064BAD
:103F60001B68044A1360044A7B69136000BF18375A
:103F7000BD4680BDBC0C0020C00C002080B582B0C6
:103F800002AFFDF79FFF154B1B68002B20D1144893
:103F9000FDF7B6FD1348FDF7B3FD134B104A1A6049
:103FA000124B104A1A6000230093114B114A102142
:103FB0000A20FEF7CDF90346084A1360074B1B6839
:103FC000002B05D0054B1B680B491846FEF7E6FD94
:103FD000FDF7A8FF00BFBD4680BD00BFC40C002098
:103FE000940C0020A80C0020BC0C0020C00C002069
:103FF000700D0020D00C00209840000870B50D4DC9
:104000000D4C641BA4100026A64209D10B4D0C4C8C
:1040100000F02EF8641BA4100026A64205D170BD46
:1040200055F8043B98470136EEE755F8043B9847AE
:104030000136F2E7B8400008B8400008B840000870
:10404000BC4000080A44914200F1FF3300D17047A0
:1040500010B511F8014B03F8014F9142F9D110BD91
:1040600002440346934200D1704703F8011BF9E76D
:10407000F8B500BFF8BC08BC9E467047F8B500BF55
:08408000F8BC08BC9E46704725
:1040880049444C4500000000546D7220537663008B
:10409800546D725100000000000000000000000094
:1040A80001020304060708090000000001020304D6
:0440B80005020008F5
:0440BC00E101000816
:0C40C0000024F40010000000AAAAAAAA24
:0400000508000221CC
:00000001FF
